:100000000C9435000C945D000C945D000C945D0024
:100010000C945D000C945D000C945D000C945D00EC
:100020000C945D000C945D000C945D000C945D00DC
:100030000C945D000C945D000C945D000C945D00CC
:100040000C94E9010C945D000C94B7010C9491019F
:100050000C945D000C945D000C945D000C945D00AC
:100060000C945D000C945D00580311241FBECFEF6B
:10007000D8E0DEBFCDBF11E0A0E0B1E0E6E5FAE0F8
:1000800002C005900D92A231B107D9F721E0A2E19B
:10009000B1E001C01D92AA3BB207E1F710E0C5E351
:1000A000D0E004C02197FE010E942305C433D1078C
:1000B000C9F70E9433020C9429050C940000AF92FA
:1000C000BF92CF92DF92EF92FF920F931F93CF9345
:1000D000DF936C017B018B01040F151FEB015E01A7
:1000E000AE18BF08C017D10759F06991D601ED913C
:1000F000FC910190F081E02DC6010995892B79F7DB
:10010000C501DF91CF911F910F91FF90EF90DF908C
:10011000CF90BF90AF900895FC01538D448D252F53
:1001200030E0842F90E0821B930B541710F0CF9691
:10013000089501970895FC01918D828D981761F0C3
:10014000A28DAE0FBF2FB11D5D968C91928D9F5FDA
:100150009F73928F90E008958FEF9FEF0895FC01B9
:10016000918D828D981731F0828DE80FF11D858D6C
:1001700090E008958FEF9FEF0895FC01918D228DFF
:10018000892F90E0805C9F4F821B91098F73992784
:1001900008958BE191E00E94BD0021E0892B09F4D4
:1001A00020E0822F089580E090E0892B29F00E94C2
:1001B000C90081110C9400000895FC01A48DA80FC2
:1001C000B92FB11DA35ABF4F2C91848D90E0019699
:1001D0008F739927848FA689B7892C93A089B189B9
:1001E0008C91837080648C93938D848D981306C05A
:1001F0000288F389E02D80818F7D80830895EF92BE
:10020000FF920F931F93CF93DF93EC0181E0888FD0
:100210009B8D8C8D98131AC0E889F989808185FFA0
:1002200015C09FB7F894EE89FF896083E889F98942
:1002300080818370806480839FBF81E090E0DF9144
:10024000CF911F910F91FF90EF900895F62E0B8D97
:1002500010E00F5F1F4F0F731127E02E8C8D8E1152
:100260000CC00FB607FCFACFE889F989808185FFB9
:10027000F5CFCE010E94DD00F1CFEB8DEC0FFD2F0D
:10028000F11DE35AFF4FF0829FB7F8940B8FEA8974
:10029000FB8980818062CFCFCF93DF93EC01888D83
:1002A0008823B9F0AA89BB89E889F9898C9185FDF1
:1002B00003C0808186FD0DC00FB607FCF7CF8C917F
:1002C00085FFF2CF808185FFEDCFCE010E94DD005A
:1002D000E9CFDF91CF9108953FB7F8948091130152
:1002E00090911401A0911501B091160126B5A89B1B
:1002F00005C02F3F19F00196A11DB11D3FBFBA2FB8
:10030000A92F982F8827BC01CD01620F711D811D77
:10031000911D42E0660F771F881F991F4A95D1F7FC
:1003200008951F920F920FB60F9211242F933F93AF
:100330004F935F936F937F938F939F93AF93BF93ED
:10034000EF93FF938BE191E00E94DD00FF91EF912D
:10035000BF91AF919F918F917F916F915F914F91DD
:100360003F912F910F900FBE0F901F9018951F92E5
:100370000F920FB60F9211242F938F939F93EF93A9
:10038000FF93E0912B01F0912C018081E0913101EC
:10039000F091320182FD1BC09081809134018F5F0A
:1003A0008F7320913501821741F0E0913401F0E024
:1003B000E55EFE4F958F80933401FF91EF919F9101
:1003C0008F912F910F900FBE0F901F9018958081E5
:1003D000F4CF1F920F920FB60F9211242F933F93D9
:1003E0008F939F93AF93BF938091170190911801C2
:1003F000A0911901B0911A013091120123E0230F4D
:100400002D3758F50196A11DB11D2093120180933F
:10041000170190931801A0931901B0931A018091CC
:10042000130190911401A0911501B091160101964C
:10043000A11DB11D8093130190931401A093150188
:10044000B0931601BF91AF919F918F913F912F91E2
:100450000F900FBE0F901F90189526E8230F02965D
:10046000A11DB11DD2CF789484B5826084BD84B5BE
:10047000816084BD85B5826085BD85B5816085BD9F
:1004800080916E00816080936E0010928100809157
:1004900081008260809381008091810081608093DF
:1004A0008100809180008160809380008091B10004
:1004B00084608093B1008091B00081608093B0002F
:1004C00080917A00846080937A0080917A008260C3
:1004D00080937A0080917A00816080937A00809185
:1004E0007A00806880937A001092C100E0912B011D
:1004F000F0912C0182E08083E0912B01F0912C019E
:100500001082E0912701F09128011082E0912901E9
:10051000F0912A0180E1808310923301E0912F0154
:10052000F091300186E08083E0912D01F0912E0161
:10053000808180618083E0912D01F0912E01808186
:1005400088608083E0912D01F0912E018081806888
:100550008083E0912D01F0912E0180818F7D808339
:1005600095E4792E00E010E08FB7F89440911701E0
:10057000509118016091190170911A018FBF8091FB
:10058000B8019091B901092E000CAA0BBB0B6A01AE
:100590007B01C81AD90AEA0AFB0AD701C601D0E0D2
:1005A000C0E0853F9140A105B105E8F15093B90144
:1005B0004093B80170927C0080917A0080648093AF
:1005C0007A0080917A0086FDFCCF6091780070916E
:1005D0007900072E000C880B990B0E942A0420E05A
:1005E00030E040EA50E40E94B6040E94F203072E75
:1005F000000C880B990B0E942A0420E030E040E8B0
:100600005AE30E94B60420E030E040E05FE30E943D
:10061000850320E030E048EC52E40E94B6040E94DA
:10062000F203D62FC72F68EC8BE191E00E94FF0008
:100630006D2F8BE191E00E94FF006C2F8BE191E028
:100640000E94FF006DE08BE191E00E94FF000E949C
:100650006C014B015C0188EEC82E83E0D82EE12CA2
:10066000F12C0E946C01681979098A099B09683E7E
:10067000734081059105A8F381E0C81AD108E1080B
:10068000F10828EE820E23E0921EA11CB11CC114B9
:10069000D104E104F10429F70115110509F464CF2F
:1006A0000E94C900882309F45FCF0E9400005CCF3C
:1006B000EBE1F1E01382128288EE93E0A0E0B0E07B
:1006C00084839583A683B78384E091E091838083BC
:1006D00085EC90E09587848784EC90E09787868707
:1006E00080EC90E0918B808B81EC90E0938B828BFF
:1006F00082EC90E0958B848B86EC90E0978B868BD8
:10070000118E128E138E148E08955058BB27AA276F
:100710000E949D030C947C040E946E0438F00E9499
:10072000750420F039F49F3F19F426F40C946B04FF
:100730000EF4E095E7FB0C946504E92F0E948D040C
:1007400058F3BA17620773078407950720F079F406
:10075000A6F50C94AF040EF4E0950B2EBA2FA02D45
:100760000B01B90190010C01CA01A0011124FF275E
:10077000591B99F0593F50F4503E68F11A16F04059
:10078000A22F232F342F4427585FF3CF4695379558
:100790002795A795F0405395C9F77EF41F16BA0B1D
:1007A000620B730B840BBAF09150A1F0FF0FBB1FCB
:1007B000661F771F881FC2F70EC0BA0F621F731F14
:1007C000841F48F4879577956795B795F7959E3F71
:1007D00008F0B0CF9395880F08F09927EE0F979502
:1007E000879508950E94F9036894B1110C94B004A0
:1007F00008950E94950488F09F5798F0B92F992783
:10080000B751B0F0E1F0660F771F881F991F1AF0FB
:10081000BA95C9F714C0B13091F00E94AF04B1E0AD
:1008200008950C94AF04672F782F8827B85F39F0AC
:10083000B93FCCF3869577956795B395D9F73EF494
:1008400090958095709561957F4F8F4F9F4F08953C
:10085000E89409C097FB3EF490958095709561955A
:100860007F4F8F4F9F4F9923A9F0F92F96E9BB2710
:100870009395F695879577956795B795F111F8CF8C
:10088000FAF4BB0F11F460FF1BC06F5F7F4F8F4FF7
:100890009F4F16C0882311F096E911C0772321F0ED
:1008A0009EE8872F762F05C0662371F096E8862F85
:1008B00070E060E02AF09A95660F771F881FDAF7DC
:1008C000880F9695879597F9089597F99F6780E81F
:1008D00070E060E008959FEF80EC089500240A9492
:1008E0001616170618060906089500240A9412160B
:1008F0001306140605060895092E0394000C11F43E
:10090000882352F0BB0F40F4BF2B11F460FF04C0EA
:100910006F5F7F4F8F4F9F4F089557FD9058440F43
:10092000551F59F05F3F71F04795880F97FB991F4E
:1009300061F09F3F79F0879508951216130614060B
:10094000551FF2CF4695F1DF08C016161706180698
:10095000991FF1CF86957105610508940895E89473
:10096000BB2766277727CB0197F908950E94C90412
:100970000C947C040E946E0438F00E94750420F0F0
:10098000952311F00C9465040C946B0411240C94C1
:10099000B0040E948D0470F3959FC1F3950F50E051
:1009A000551F629FF001729FBB27F00DB11D639F21
:1009B000AA27F00DB11DAA1F649F6627B00DA11DC7
:1009C000661F829F2227B00DA11D621F739FB00D6D
:1009D000A11D621F839FA00D611D221F749F3327DD
:1009E000A00D611D231F849F600D211D822F762F76
:1009F0006A2F11249F5750409AF0F1F088234AF053
:100A0000EE0FFF1FBB1F661F771F881F91505040BE
:100A1000A9F79E3F510580F00C9465040C94B00436
:100A20005F3FE4F3983ED4F3869577956795B79545
:100A3000F795E7959F5FC1F7FE2B880F911D96955F
:100A4000879597F90895EE0FFF1F0590F491E02D1B
:060A50000994F894FFCFA9
:100A560000000000FF005F008C004C01BD009B0001
:020A6600AF00DF
:00000001FF
