:100000000C945D000C9485000C9485000C94850084
:100010000C9485000C9485000C9485000C9485004C
:100020000C9485000C9485000C9485000C9485003C
:100030000C9485000C9485000C9485000C9485002C
:100040000C941D020C9485000C948D020C94670294
:100050000C9485000C9485000C9485000C9485000C
:100060000C9485000C94850000000008000201003B
:100070000003040700000000000000000000000072
:10008000250028002B0000000000240027002A0083
:10009000040404040404040402020202020203032E
:1000A0000303030301020408102040800102040836
:1000B0001020010204081020E80311241FBECFEF16
:1000C000D8E0DEBFCDBF11E0A0E0B1E0E8EEF8E09F
:1000D00002C005900D92A231B107D9F721E0A2E14B
:1000E000B1E001C01D92A83BB207E1F710E0CDE5F9
:1000F000D0E004C02197FE010E946C04CC35D107EA
:10010000C9F70E94BF020C9472040C940000EFEA3D
:10011000F0E02491EBE9F0E08491882399F090E0FD
:10012000880F991FFC01EA57FF4FA591B491FC017C
:10013000E458FF4F859194918FB7F894EC91E22B9E
:10014000EC938FBF0895E3E7F0E02491EFEAF0E04D
:100150009491EBE9F0E0E491EE23C9F0222339F029
:10016000233001F1A8F4213019F1223029F1F0E017
:10017000EE0FFF1FE458FF4FA591B4912FB7F894ED
:10018000EC91811126C090959E239C932FBF0895DA
:100190002730A9F02830C9F0243049F72091800099
:1001A0002F7D03C0209180002F7720938000DFCF28
:1001B00024B52F7724BDDBCF24B52F7DFBCF209135
:1001C000B0002F772093B000D2CF2091B0002F7DC8
:1001D000F9CF9E2BDACF3FB7F8948091B40190917C
:1001E000B501A091B601B091B70126B5A89B05C095
:1001F0002F3F19F00196A11DB11D3FBFBA2FA92FA6
:10020000982F8827BC01CD01620F711D811D911DA2
:1002100042E0660F771F881F991F4A95D1F708950E
:10022000AF92BF92CF92DF92EF92FF920F931F9304
:10023000CF93DF936C017B018B01040F151FEB0142
:100240005E01AE18BF08C017D10759F06991D601F9
:10025000ED91FC910190F081E02DC6010995892B6B
:1002600079F7C501DF91CF911F910F91FF90EF902A
:10027000DF90CF90BF90AF900895FC01538D448DD7
:10028000252F30E0842F90E0821B930B541710F041
:10029000CF96089501970895FC01918D828D98174E
:1002A00061F0A28DAE0FBF2FB11D5D968C91928D26
:1002B0009F5F9F73928F90E008958FEF9FEF089557
:1002C000FC01918D828D981731F0828DE80FF11D20
:1002D000858D90E008958FEF9FEF0895FC01918D3B
:1002E000228D892F90E0805C9F4F821B91098F7334
:1002F0009927089582E191E00E946E0121E0892B07
:1003000009F420E0822F089580E090E0892B29F005
:100310000E947A0181110C9400000895FC01A48DC3
:10032000A80FB92FB11DA35ABF4F2C91848D90E017
:1003300001968F739927848FA689B7892C93A089FA
:10034000B1898C91837080648C93938D848D981384
:1003500006C00288F389E02D80818F7D8083089517
:10036000EF92FF920F931F93CF93DF93EC0181E005
:10037000888F9B8D8C8D98131AC0E889F9898081AC
:1003800085FF15C09FB7F894EE89FF896083E889DF
:10039000F98980818370806480839FBF81E090E0D1
:1003A000DF91CF911F910F91FF90EF900895F62E5E
:1003B0000B8D10E00F5F1F4F0F731127E02E8C8DF8
:1003C0008E110CC00FB607FCFACFE889F98980813D
:1003D00085FFF5CFCE010E948E01F1CFEB8DEC0FA2
:1003E000FD2FF11DE35AFF4FF0829FB7F8940B8F5A
:1003F000EA89FB8980818062CFCFCF93DF93EC01C4
:10040000888D8823B9F0AA89BB89E889F9898C91FC
:1004100085FD03C0808186FD0DC00FB607FCF7CFB8
:100420008C9185FFF2CF808185FFEDCFCE010E94B8
:100430008E01E9CFDF91CF9108951F920F920FB6F1
:100440000F9211242F933F938F939F93AF93BF935A
:100450008091B0019091B101A091B201B091B3012E
:100460003091AF0123E0230F2D3758F50196A11DE0
:10047000B11D2093AF018093B0019093B101A0937F
:10048000B201B093B3018091B4019091B501A091F4
:10049000B601B091B7010196A11DB11D8093B401C1
:1004A0009093B501A093B601B093B701BF91AF91FE
:1004B0009F918F913F912F910F900FBE0F901F90A2
:1004C000189526E8230F0296A11DB11DD2CF1F92C9
:1004D0000F920FB60F9211242F933F934F935F9378
:1004E0006F937F938F939F93AF93BF93EF93FF93FC
:1004F00082E191E00E948E01FF91EF91BF91AF9157
:100500009F918F917F916F915F914F913F912F912B
:100510000F900FBE0F901F9018951F920F920FB65D
:100520000F9211242F938F939F93EF93FF93E0915A
:100530002201F09123018081E0912801F0912901AD
:1005400082FD1BC0908180912B018F5F8F73209162
:100550002C01821741F0E0912B01F0E0EE5EFE4F9E
:10056000958F80932B01FF91EF919F918F912F9108
:100570000F900FBE0F901F9018958081F4CF789444
:1005800084B5826084BD84B5816084BD85B5826098
:1005900085BD85B5816085BD80916E008160809349
:1005A0006E001092810080918100826080938100B2
:1005B00080918100816080938100809180008160C2
:1005C000809380008091B10084608093B10080911D
:1005D000B00081608093B00080917A008460809345
:1005E0007A0080917A00826080937A0080917A000C
:1005F000816080937A0080917A00806880937A008D
:100600001092C100E0912201F091230182E08083E9
:10061000E0912201F09123011082E0911E01F091FE
:100620001F011082E0912001F091210180E180837F
:1006300010922A01E0912601F091270186E0808343
:10064000E0912401F0912501808180618083E09117
:100650002401F0912501808188608083E09124014C
:10066000F0912501808180688083E0912401F091E0
:10067000250180818F7D80830E94870093E4392E3D
:1006800044244A9423E0522E612C712C03E710E09D
:10069000C0E0D0E030927C0080917A00806480934A
:1006A0007A0080917A0086FDFCCFA0917800B0910D
:1006B000790024E630E00E946504A30192010E94C3
:1006C0001504D22EC32EE22EF32E0E948700E114D1
:1006D000F10491F580E00E94A3000E94EB004B0121
:1006E0005C0184E6C82ED12CE12CF12C0E94EB0099
:1006F000681979098A099B09683E7340810591054B
:10070000A8F321E0C21AD108E108F10888EE880EAA
:1007100083E0981EA11CB11CC114D104E104F104B2
:1007200029F7209709F4B6CF0E947A01882309F4AB
:10073000B1CF0E940000AECF2FEFE216F10411F40A
:1007400081E0C9CFF8018491833031F148F48130E0
:10075000C9F08230E1F0F0E8EF16F1048CF7BACF7F
:10076000873031F1883061F18430A9F780918000C1
:100770008062809380008D2D9C2D90938B008093C0
:100780008A00ABCF84B5806884BDD7BCA6CF84B5C2
:10079000806284BDD8BCA1CF8091800080688093A6
:1007A00080008D2D9C2D909389008093880095CF9B
:1007B0008091B00080688093B000D092B3008DCF5C
:1007C0008091B00080628093B000D092B40085CF59
:1007D000E2E1F1E01382128288EE93E0A0E0B0E063
:1007E00084839583A683B78384E091E0918380839B
:1007F00085EC90E09587848784EC90E097878687E6
:1008000080EC90E0918B808B81EC90E0938B828BDD
:1008100082EC90E0958B848B86EC90E0978B868BB6
:10082000118E128E138E148E0895052E97FB1EF4D2
:1008300000940E942C0457FD07D00E94340407FC4A
:1008400003D04EF40C942C0450954095309521958E
:100850003F4F4F4F5F4F08959095809570956195EC
:100860007F4F8F4F9F4F0895A1E21A2EAA1BBB1BEB
:10087000FD010DC0AA1FBB1FEE1FFF1FA217B3076C
:10088000E407F50720F0A21BB30BE40BF50B661F82
:10089000771F881F991F1A9469F760957095809546
:1008A00090959B01AC01BD01CF010895A29FB001BD
:1008B000B39FC001A39F700D811D1124911DB29F94
:1008C000700D811D1124911D08950E945604B7FFDB
:1008D0000895821B930B0895EE0FFF1F0590F4916E
:0808E000E02D0994F894FFCF0C
:1008E80000000000B00110013D01FD016E014C0146
:0208F80060019D
:00000001FF
