:100000000C9461000C947E000C947E000C947E0095
:100010000C947E000C947E000C947E000C947E0068
:100020000C947E000C947E000C947E000C947E0058
:100030000C947E000C947E000C947E000C947E0048
:100040000C9453010C947E000C947E000C947E0062
:100050000C947E000C947E000C947E000C947E0028
:100060000C947E000C947E00000000002400270009
:100070002A000000000023002600290000000000E4
:10008000250028002B0004040404040404040202D4
:100090000202020203030303030301020408102007
:1000A0004080010204081020010204081020000012
:1000B0000008000201000003040700000000000027
:1000C000000011241FBECFEFD8E0DEBFCDBF11E08E
:1000D000A0E0B1E0EEEBF5E002C005900D92A43097
:1000E000B107D9F721E0A4E0B1E001C01D92A7312A
:1000F000B207E1F70E949D010C94DD020C94000010
:10010000833081F028F4813099F08230A9F008958D
:100110008730A9F08830C9F08430B1F48091800034
:100120008F7D03C0809180008F7780938000089539
:1001300084B58F7784BD089584B58F7DFBCF809182
:10014000B0008F778093B00008958091B0008F7DCC
:10015000F9CF1F93CF93DF93E0EBF0E09491ECE9BC
:10016000F0E0D491E8E8F0E0C491CC23B9F0182F86
:10017000992319F0892F0E948000EC2FF0E0EE0FF8
:10018000FF1FE458FF4FA591B4918FB7F894EC91FD
:10019000111108C0D095DE23DC938FBFDF91CF9182
:1001A0001F910895DE2BF8CFCF93DF93282F30E0F7
:1001B000F901E255FF4F8491F901E656FF4FD491C2
:1001C000F901EA57FF4FC491CC23A1F081110E949D
:1001D0008000EC2FF0E0EE0FFF1FEE58FF4FA591CF
:1001E000B491EC91ED2381E090E009F480E0DF919F
:1001F000CF91089580E090E0FACFCF93DF9390E025
:10020000FC01E656FF4F24918A579F4FFC018491D1
:100210008823D1F090E0880F991FFC01E859FF4F27
:10022000A591B491FC01E458FF4FC591D49161119F
:100230000EC09FB7F8948C91E22FE0958E238C939B
:100240002881E223E8839FBFDF91CF9108958FB784
:10025000F894EC91E22BEC938FBFF6CF3FB7F89474
:100260008091130190911401A0911501B091160194
:1002700026B5A89B05C02F3F19F00196A11DB11D01
:100280003FBFBA2FA92F982F8827BC01CD01620F3D
:10029000711D811D911D42E0660F771F881F991FF8
:1002A0004A95D1F708951F920F920FB60F9211241D
:1002B0002F933F938F939F93AF93BF9380910F01A1
:1002C00090911001A0911101B091120130910E0195
:1002D00023E0230F2D3758F50196A11DB11D209362
:1002E0000E0180930F0190931001A0931101B09320
:1002F00012018091130190911401A0911501B09108
:1003000016010196A11DB11D809313019093140154
:10031000A0931501B0931601BF91AF919F918F915A
:100320003F912F910F900FBE0F901F90189526E8C8
:10033000230F0296A11DB11DD2CF789484B582609F
:1003400084BD84B5816084BD85B5826085BD85B579
:10035000816085BD80916E00816080936E001092F7
:100360008100809181008260809381008091810072
:100370008160809381008091800081608093800003
:100380008091B10084608093B1008091B000816061
:100390008093B00080917A00846080937A0080918D
:1003A0007A00826080937A0080917A0081608093E5
:1003B0007A0080917A00806880937A001092C10060
:1003C00060E08AE00E94FD0060E08DE00E94FD0098
:1003D00061E082E00E94FD00C0E0D0E02FB7F89419
:1003E00080910F0190911001A0911101B091120123
:1003F0002FBF40910A0150910B0160910C01709147
:100400000D01841B950BA60BB70B85369105A10535
:10041000B10508F18AE00E94D4009093090180930D
:1004200008018DE00E94D40090930701809306019B
:100430002FB7F89480910F0190911001A0911101B4
:10044000B09112012FBF80930A0190930B01A093EA
:100450000C01B0930D018091080190910901209148
:1004600002013091030182179307C9F10197B9F591
:10047000E0900801F090090121E0E216F10441F456
:100480008AE00E94D4009093090180930801F0CF84
:1004900081E02091040130910501232B09F080E0D7
:1004A000282F30E030930501209304010E94A90019
:1004B000F0920301E09202012FB7F89480910F01AE
:1004C00090911001A0911101B09112012FBF809362
:1004D0000A0190930B01A0930C01B0930D01809140
:1004E00006019091070120910001309101018217CE
:1004F0009307C9F10197B9F5E0900601F090070163
:1005000081E0E816F10441F48DE00E94D40090935C
:10051000070180930601F0CF81E020910401309122
:100520000501232B09F080E0282F30E030930501EE
:10053000209304010E94A900F0920101E0920001C1
:100540002FB7F89480910F0190911001A0911101A3
:10055000B09112012FBF80930A0190930B01A093D9
:100560000C01B0930D010E942E014B015C018AE049
:10057000C82ED12CE12CF12C0E942E01681979098A
:100580008A099B09683E734081059105A8F321E023
:10059000C21AD108E108F10888EE880E83E0981E9F
:1005A000A11CB11CC114D104E104F10429F7209766
:0E05B00009F414CF0E94000011CFF894FFCF81
:0405BE00FFFFFFFF3D
:00000001FF
