:100000000C9461000C947E000C947E000C947E0095
:100010000C947E000C947E000C947E000C947E0068
:100020000C947E000C947E000C947E000C947E0058
:100030000C947E000C947E000C947E000C947E0048
:100040000C9451010C947E000C947E000C947E0064
:100050000C947E000C947E000C947E000C947E0028
:100060000C947E000C947E00000000002400270009
:100070002A0000000000250028002B0000000000DE
:1000800023002600290004040404040404040202DA
:100090000202020203030303030301020408102007
:1000A0004080010204081020010204081020000012
:1000B0000008000201000003040700000000000027
:1000C000000011241FBECFEFD8E0DEBFCDBF11E08E
:1000D000A0E0B1E0E4E2F5E002C005900D92A230AC
:1000E000B107D9F721E0A2E0B1E001C01D92AF3025
:1000F000B207E1F70E949B010C9490020C9400005F
:10010000833081F028F4813099F08230A9F008958D
:100110008730A9F08830C9F08430B1F48091800034
:100120008F7D03C0809180008F7780938000089539
:1001300084B58F7784BD089584B58F7DFBCF809182
:10014000B0008F778093B00008958091B0008F7DCC
:10015000F9CFCF93DF93E8EBF0E08491E4EAF0E0AD
:10016000D491E0E9F0E0C491CC23A1F081110E9488
:100170008000EC2FF0E0EE0FFF1FE458FF4FA59139
:10018000B491EC91ED2381E090E009F480E0DF91FF
:10019000CF91089580E090E0FACF1F93CF93DF9343
:1001A000282F30E0F901E255FF4F8491F901E6561E
:1001B000FF4FD491F901EA57FF4FC491CC23A9F026
:1001C000162F81110E948000EC2FF0E0EE0FFF1F30
:1001D000EE58FF4FA591B4918FB7F894EC9111119F
:1001E00008C0D095DE23DC938FBFDF91CF911F91A4
:1001F0000895DE2BF8CFCF93DF9390E0FC01E65615
:10020000FF4F24918A579F4FFC0184918823D1F09E
:1002100090E0880F991FFC01E859FF4FA591B49118
:10022000FC01EE58FF4FC591D49161110EC09FB7EC
:10023000F8948C91E22FE0958E238C932881E22311
:10024000E8839FBFDF91CF9108958FB7F894EC9129
:10025000E22BEC938FBFF6CF3FB7F89480910B0160
:1002600090910C01A0910D01B0910E0126B5A89BB3
:1002700005C02F3F19F00196A11DB11D3FBFBA2F38
:10028000A92F982F8827BC01CD01620F711D811DF8
:10029000911D42E0660F771F881F991F4A95D1F77D
:1002A00008951F920F920FB60F9211242F933F9330
:1002B0008F939F93AF93BF93809107019091080113
:1002C000A0910901B0910A013091060123E0230FAA
:1002D0002D3758F50196A11DB11D2093060180937D
:1002E000070190930801A0930901B0930A0180913E
:1002F0000B0190910C01A0910D01B0910E0101969E
:10030000A11DB11D80930B0190930C01A0930D01D1
:10031000B0930E01BF91AF919F918F913F912F911B
:100320000F900FBE0F901F90189526E8230F02968E
:10033000A11DB11DD2CF789484B5826084BD84B5EF
:10034000816084BD85B5826085BD85B5816085BDD0
:1003500080916E00816080936E0010928100809188
:100360008100826080938100809181008160809310
:100370008100809180008160809380008091B10035
:1003800084608093B1008091B00081608093B00060
:1003900080917A00846080937A0080917A008260F4
:1003A00080937A0080917A00816080937A008091B6
:1003B0007A00806880937A001092C10061E082E048
:1003C0000E94FB0061E084E00E94FB0061E086E0A7
:1003D0000E94FB0060E08AE00E94FB0061E082E096
:1003E0000E94CD0010920101109200012FB7F894E5
:1003F0008091070190910801A0910901B0910A0133
:100400002FBF8093020190930301A0930401B09346
:100410000501C0E0D0E001E010E02FB7F894809132
:10042000070190910801A0910901B0910A012FBF25
:100430004091020150910301609104017091050106
:10044000841B950BA60BB70B893C9105A105B10543
:1004500070F10E94A9007C010E94A9000197E1F3BC
:100460002FB7F8948091070190910801A09109019C
:10047000B0910A012FBF8093020190930301A093D2
:100480000401B0930501EF2891F080910001909153
:1004900001010097B1F560E082E00E94CD0061E0CB
:1004A00084E00E94CD0010930101009300010E949E
:1004B0002C014B015C018AE0C82ED12CE12CF12CDF
:1004C0000E942C01681979098A099B09683E7340CA
:1004D00081059105A8F321E0C21AD108E108F108CD
:1004E00088EE880E83E0981EA11CB11CC114D104B3
:1004F000E104F10429F7209709F48FCF0E9400004E
:100500008CCF0197A1F660E084E00E94CD0061E00D
:1005100082E00E94CD001092010110920001C7CF2D
:04052000F894FFCF7D
:02052400FFFFD7
:00000001FF
