:100000000C9461000C947E000C947E000C947E0095
:100010000C947E000C947E000C947E000C947E0068
:100020000C947E000C947E000C947E000C947E0058
:100030000C947E000C947E000C947E000C947E0048
:100040000C941D010C947E000C947E000C947E0098
:100050000C947E000C947E000C947E000C947E0028
:100060000C947E000C947E00000000002400270009
:100070002A000000000023002600290000000000E4
:10008000250028002B0004040404040404040202D4
:100090000202020203030303030301020408102007
:1000A0004080010204081020010204081020000012
:1000B0000008000201000003040700000000000027
:1000C000000011241FBECFEFD8E0DEBFCDBF11E08E
:1000D000A0E0B1E0ECEFF4E002C005900D92A23098
:1000E000B107D9F721E0A2E0B1E001C01D92AF3025
:1000F000B207E1F70E9467010C947C020C940000A7
:10010000833081F028F4813099F08230A9F008958D
:100110008730A9F08830C9F08430B1F48091800034
:100120008F7D03C0809180008F7780938000089539
:1001300084B58F7784BD089584B58F7DFBCF809182
:10014000B0008F778093B00008958091B0008F7DCC
:10015000F9CF1F93CF93DF93E2EBF0E09491EEE9B8
:10016000F0E0D491EAE8F0E0C491CC23B9F0182F84
:10017000992319F0892F0E948000EC2FF0E0EE0FF8
:10018000FF1FE458FF4FA591B4918FB7F894EC91FD
:10019000111108C0D095DE23DC938FBFDF91CF9182
:1001A0001F910895DE2BF8CFCF93DF93E8EBF0E0BB
:1001B0008491E4EAF0E0D491E0E9F0E0C491CC234A
:1001C000A1F081110E948000EC2FF0E0EE0FFF1FE4
:1001D000EE58FF4FA591B491EC91ED2381E090E0B2
:1001E00009F480E0DF91CF91089580E090E0FACFAC
:1001F0003FB7F89480910B0190910C01A0910D01F3
:10020000B0910E0126B5A89B05C02F3F19F00196AD
:10021000A11DB11D3FBFBA2FA92F982F8827BC0160
:10022000CD01620F711D811D911D42E0660F771F88
:10023000881F991F4A95D1F708951F920F920FB604
:100240000F9211242F933F938F939F93AF93BF935C
:100250008091070190910801A0910901B0910A01D4
:100260003091060123E0230F2D3758F50196A11D8B
:10027000B11D209306018093070190930801A0937C
:100280000901B0930A0180910B0190910C01A0919A
:100290000D01B0910E010196A11DB11D80930B01BE
:1002A00090930C01A0930D01B0930E01BF91AF91FB
:1002B0009F918F913F912F910F900FBE0F901F90A4
:1002C000189526E8230F0296A11DB11DD2CF789470
:1002D00084B5826084BD84B5816084BD85B582604B
:1002E00085BD85B5816085BD80916E0081608093FC
:1002F0006E00109281008091810082608093810065
:100300008091810081608093810080918000816074
:10031000809380008091B10084608093B1008091CF
:10032000B00081608093B00080917A0084608093F7
:100330007A0080917A00826080937A0080917A00BE
:10034000816080937A0080917A00806880937A003F
:100350001092C100EEE9F0E02491EAE8F0E0849127
:10036000882399F090E0880F991FFC01E859FF4F0E
:10037000A591B491FC01E458FF4F859194918FB7FA
:10038000F894EC91E22BEC938FBFE4EAF0E0249137
:10039000E0E9F0E084918823C1F090E0880F991F94
:1003A000FC01E859FF4FC591D491FC01E458FF4F7F
:1003B000A591B4919FB7F8948881E22FE0958E23A0
:1003C00088838C91E823EC939FBF80E00E94A90072
:1003D00010920101109200012FB7F894809107014B
:1003E00090910801A0910901B0910A012FBF80935B
:1003F000020190930301A0930401B0930501C0E0B2
:10040000D0E001E010E02FB7F894809107019091BF
:100410000801A0910901B0910A012FBF409102018A
:10042000509103016091040170910501841B950BAB
:10043000A60BB70B893C9105A105B10548F10E94B7
:10044000D4007C010E94D4000197E1F32FB7F89407
:100450008091070190910801A0910901B0910A01D2
:100460002FBF8093020190930301A0930401B093E6
:100470000501EF2869F0809100019091010100973A
:1004800089F581E00E94A900109301010093000109
:100490000E94F8006B017C018AE0882E912CA12C2F
:1004A000B12C0E94F8006C197D098E099F09683EE5
:1004B000734081059105A8F321E0821A9108A108F3
:1004C000B10888EEC80E83E0D81EE11CF11C81142F
:1004D0009104A104B10429F7209709F494CF0E9454
:1004E000000091CF0197A1F680E00E94A900109230
:0C04F000010110920001CCCFF894FFCF66
:0204FC00FFFF00
:00000001FF
