:100000000C9462000C948A000C948A000C948A0070
:100010000C948A000C948A000C948A000C948A0038
:100020000C948A000C948A000C948A000C948A0028
:100030000C948A000C948A000C948A000C948A0018
:100040000C948B020C948A000C94FB020C94D50245
:100050000C948A000C948A000C948A000C948A00F8
:100060000C948A000C948A000000000023002600F3
:10007000290000000008000201000003040700003E
:1000800000000000000000000000250028002B00F8
:1000900000000000240027002A00040404040404D3
:1000A0000404020202020202030303030303010227
:1000B00004081020408001020408102001020408F6
:1000C00010203E0411241FBECFEFD8E0DEBFCDBF0D
:1000D00011E0A0E0B1E0E6EEF8E002C005900D927C
:1000E000A231B107D9F721E0A2E1B1E001C01D9230
:1000F000AC3BB207E1F710E0C2E6D0E004C02197C4
:10010000FE010E946B04C136D107C9F70E942D037E
:100110000C9471040C940000CF93DF9390E0FC01E9
:10012000E255FF4F249186569F4FFC01849188230E
:10013000C1F090E0880F991FFC01E057FF4FC59177
:10014000D491FC01EA57FF4FA591B4919FB7F89461
:100150008881E22FE0958E2388838C91E823EC93AD
:100160009FBFDF91CF91089590E0FC01EE58FF4FC3
:100170002491FC01E255FF4F3491FC01E656FF4FFC
:10018000E491EE23C1F1222339F02330E9F090F419
:10019000213001F1223011F1F0E0EE0FFF1FE8599C
:1001A000FF4FA591B491EC91E32381E090E029F514
:1001B00080E008952730A9F02830C9F0243061F795
:1001C000809180008F7D03C0809180008F77809325
:1001D0008000E2CF84B58F7784BDDECF84B58F7D7C
:1001E000FBCF8091B0008F778093B000D5CF809106
:1001F000B0008F7DF9CF80E090E008953FB7F8948C
:100200008091B8019091B901A091BA01B091BB0160
:1002100026B5A89B05C02F3F19F00196A11DB11D61
:100220003FBFBA2FA92F982F8827BC01CD01620F9D
:10023000711D811D911D42E0660F771F881F991F58
:100240004A95D1F708958F929F92AF92BF92CF9225
:10025000DF92EF92FF920E94FE004B015C018AE068
:10026000C82ED12CE12CF12C0E94FE0068197909CE
:100270008A099B09683E734081059105A8F321E036
:10028000C21AD108E108F10888EE880E83E0981EB2
:10029000A11CB11CC114D104E104F10429F7FF90A1
:1002A000EF90DF90CF90BF90AF909F908F90089588
:1002B000AF92BF92CF92DF92EF92FF920F931F9374
:1002C000CF93DF936C017B018B01040F151FEB01B2
:1002D0005E01AE18BF08C017D10759F06991D60169
:1002E000ED91FC910190F081E02DC6010995892BDB
:1002F00079F7C501DF91CF911F910F91FF90EF909A
:10030000DF90CF90BF90AF900895FC01538D448D46
:10031000252F30E0842F90E0821B930B541710F0B0
:10032000CF96089501970895FC01918D828D9817BD
:1003300061F0A28DAE0FBF2FB11D5D968C91928D95
:100340009F5F9F73928F90E008958FEF9FEF0895C6
:10035000FC01918D828D981731F0828DE80FF11D8F
:10036000858D90E008958FEF9FEF0895FC01918DAA
:10037000228D892F90E0805C9F4F821B91098F73A3
:100380009927089582E191E00E94B60121E0892B2E
:1003900009F420E0822F089580E090E0892B29F075
:1003A0000E94C20181110C9400000895FC01A48DEB
:1003B000A80FB92FB11DA35ABF4F2C91848D90E087
:1003C00001968F739927848FA689B7892C93A0896A
:1003D000B1898C91837080648C93938D848D9813F4
:1003E00006C00288F389E02D80818F7D8083089587
:1003F000EF92FF920F931F93CF93DF93EC0181E075
:10040000888F9B8D8C8D98131AC0E889F98980811B
:1004100085FF15C09FB7F894EE89FF896083E8894E
:10042000F98980818370806480839FBF81E090E040
:10043000DF91CF911F910F91FF90EF900895F62ECD
:100440000B8D10E00F5F1F4F0F731127E02E8C8D67
:100450008E110CC00FB607FCFACFE889F9898081AC
:1004600085FFF5CFCE010E94D601F1CFEB8DEC0FC9
:10047000FD2FF11DE35AFF4FF0829FB7F8940B8FC9
:10048000EA89FB8980818062CFCFCF93DF93EC0133
:10049000888D8823B9F0AA89BB89E889F9898C916C
:1004A00085FD03C0808186FD0DC00FB607FCF7CF28
:1004B0008C9185FFF2CF808185FFEDCFCE010E9428
:1004C000D601E9CFDF91CF910895CF93C82F69EC82
:1004D00082E191E00E94F8016C2F82E191E00E949C
:1004E000F8016CEC82E191E00E94F8012FB7F894DA
:1004F0008091B4019091B501A091B601B091B7017E
:100500002FBF8093AF019093B001A093B101B0933E
:10051000B201CF9108951F920F920FB60F9211243E
:100520002F933F938F939F93AF93BF938091B40189
:100530009091B501A091B601B091B7013091B3018E
:1005400023E0230F2D3758F50196A11DB11D2093EF
:10055000B3018093B4019093B501A093B601B09319
:10056000B7018091B8019091B901A091BA01B09101
:10057000BB010196A11DB11D8093B8019093B901F3
:10058000A093BA01B093BB01BF91AF919F918F919E
:100590003F912F910F900FBE0F901F90189526E856
:1005A000230F0296A11DB11DD2CF1F920F920FB63D
:1005B0000F9211242F933F934F935F936F937F93E9
:1005C0008F939F93AF93BF93EF93FF9382E191E05B
:1005D0000E94D601FF91EF91BF91AF919F918F91B2
:1005E0007F916F915F914F913F912F910F900FBE2F
:1005F0000F901F9018951F920F920FB60F92112413
:100600002F938F939F93EF93FF93E0912201F091AB
:1006100023018081E0912801F091290182FD1BC016
:10062000908180912B018F5F8F7320912C01821715
:1006300041F0E0912B01F0E0EE5EFE4F958F80934C
:100640002B01FF91EF919F918F912F910F900FBEF2
:100650000F901F9018958081F4CF789484B58260B4
:1006600084BD84B5816084BD85B5826085BD85B556
:10067000816085BD80916E00816080936E001092D4
:10068000810080918100826080938100809181004F
:1006900081608093810080918000816080938000E0
:1006A0008091B10084608093B1008091B00081603E
:1006B0008093B00080917A00846080937A0080916A
:1006C0007A00826080937A0080917A0081608093C2
:1006D0007A0080917A00806880937A001092C1003D
:1006E000E0912201F091230182E08083E0912201D8
:1006F000F09123011082E0911E01F0911F01108200
:10070000E0912001F091210180E1808310922A0183
:10071000E0912601F091270186E08083E091240199
:10072000F0912501808180618083E0912401F09126
:100730002501808188608083E0912401F09125016A
:10074000808180688083E0912401F091250180817F
:100750008F7D808387E00E948C0088E00E948C005F
:1007600089E00E948C008AE00E948C002FB7F894E8
:100770008091B4019091B501A091B601B091B701FB
:100780002FBF8093AF019093B001A093B101B093BC
:10079000B201C0E0D0E02FB7F8948091B4019091FD
:1007A000B501A091B601B091B7012FBF4091AF0143
:1007B0005091B0016091B1017091B201841B950B11
:1007C000A60BB70B893C9105A105B10508F44FC0F4
:1007D00087E00E94B4005C0188E00E94B4006C01D4
:1007E00089E00E94B4007C018AE00E94B4008C0180
:1007F00087E00E94B4000197D9F32FB7F894809155
:10080000B4019091B501A091B601B091B7012FBF8D
:100810008093AF019093B001A093B101B093B20166
:10082000AB2819F08AED0E9465020E942301CD28B1
:1008300019F088ED0E9465020E942301EF2819F04B
:1008400089ED0E9465020E942301012B19F087EDBA
:100850000E9465020E942301209709F49CCF0E9408
:10086000C201882309F497CF0E94000094CF10E0C2
:1008700000E0F12CE12CD12CC12CD7CFE2E1F1E04A
:100880001382128288EE93E0A0E0B0E08483958327
:10089000A683B78384E091E09183808385EC90E028
:1008A0009587848784EC90E09787868780EC90E03A
:1008B000918B808B81EC90E0938B828B82EC90E02B
:1008C000958B848B86EC90E0978B868B118E128EA5
:1008D000138E148E0895EE0FFF1F0590F491E02DF6
:0608E0000994F894FFCF1B
:1008E60000000000F801580185014502B601940197
:0208F600A80157
:00000001FF
