:100000000C945D000C9485000C9485000C94850084
:100010000C9485000C9485000C9485000C9485004C
:100020000C9485000C9485000C9485000C9485003C
:100030000C9485000C9485000C9485000C9485002C
:100040000C94FB010C9485000C946B020C944502FB
:100050000C9485000C9485000C9485000C9485000C
:100060000C9485000C9485000000000024002700FB
:100070002A0000000000250028002B0004040404CE
:100080000404040402020202020203030303030342
:10009000010204081020408001020408102001021F
:1000A00004081020000000080002010000030407FB
:1000B00000000000000000008F0311241FBECFEFDE
:1000C000D8E0DEBFCDBF11E0A0E0B1E0E8E8F7E0A6
:1000D00002C005900D92AC33B107D9F721E0ACE333
:1000E000B1E001C01D92A23EB207E1F710E0CDE5FC
:1000F000D0E004C02197FE010E94BC03CC35D1079B
:10010000C9F70E949D020C94C2030C940000E6EA19
:10011000F0E02491E2E9F0E09491EEE7F0E0E49180
:10012000EE23C9F0222339F0233001F1A8F4213065
:1001300019F1223029F1F0E0EE0FFF1FEE58FF4FCA
:10014000A591B4912FB7F894EC91811126C09095A8
:100150009E239C932FBF08952730A9F02830C9F023
:10016000243049F7209180002F7D03C0209180002A
:100170002F7720938000DFCF24B52F7724BDDBCFEE
:1001800024B52F7DFBCF2091B0002F772093B000B6
:10019000D2CF2091B0002F7DF9CF9E2BDACFAF9236
:1001A000BF92CF92DF92EF92FF920F931F93CF9364
:1001B000DF936C017B018B01040F151FEB015E01C6
:1001C000AE18BF08C017D10759F06991D601ED915B
:1001D000FC910190F081E02DC6010995892B79F7FA
:1001E000C501DF91CF911F910F91FF90EF90DF90AC
:1001F000CF90BF90AF900895FC01538D448D252F73
:1002000030E0842F90E0821B930B541710F0CF96B0
:10021000089501970895FC01918D828D981761F0E2
:10022000A28DAE0FBF2FB11D5D968C91928D9F5FF9
:100230009F73928F90E008958FEF9FEF0895FC01D8
:10024000918D828D981731F0828DE80FF11D858D8B
:1002500090E008958FEF9FEF0895FC01918D228D1E
:10026000892F90E0805C9F4F821B91098F739927A3
:10027000089585E491E00E942D0121E0892B09F485
:1002800020E0822F089580E090E0892B29F00E94E1
:10029000390181110C9400000895FC01A48DA80F70
:1002A000B92FB11DA35ABF4F2C91848D90E00196B8
:1002B0008F739927848FA689B7892C93A089B189D8
:1002C0008C91837080648C93938D848D981306C079
:1002D0000288F389E02D80818F7D80830895EF92DD
:1002E000FF920F931F93CF93DF93EC0181E0888FF0
:1002F0009B8D8C8D98131AC0E889F989808185FFC0
:1003000015C09FB7F894EE89FF896083E889F98961
:1003100080818370806480839FBF81E090E0DF9163
:10032000CF911F910F91FF90EF900895F62E0B8DB6
:1003300010E00F5F1F4F0F731127E02E8C8D8E1171
:100340000CC00FB607FCFACFE889F989808185FFD8
:10035000F5CFCE010E944D01F1CFEB8DEC0FFD2FBB
:10036000F11DE35AFF4FF0829FB7F8940B8FEA8993
:10037000FB8980818062CFCFCF93DF93EC01888DA2
:100380008823B9F0AA89BB89E889F9898C9185FD10
:1003900003C0808186FD0DC00FB607FCF7CF8C919E
:1003A00085FFF2CF808185FFEDCFCE010E944D0108
:1003B000E9CFDF91CF910895CF93C82F69EC85E401
:1003C00091E00E946F016C2F85E491E00E946F0123
:1003D0006CEC85E491E0CF910C946F01FC010190ED
:1003E0000020E9F73197AF01481B590BBC0185E4A8
:1003F00091E00C94CF001F920F920FB60F92112430
:100400002F933F938F939F93AF93BF93809141011D
:1004100090914201A0914301B0914401309140017B
:1004200023E0230F2D3758F50196A11DB11D209310
:1004300040018093410190934201A0934301B09306
:10044000440180913C0190913D01A0913E01B09109
:100450003F010196A11DB11D80933C0190933D0188
:10046000A0933E01B0933F01BF91AF919F918F91B7
:100470003F912F910F900FBE0F901F90189526E877
:10048000230F0296A11DB11DD2CF1F920F920FB65E
:100490000F9211242F933F934F935F936F937F930A
:1004A0008F939F93AF93BF93EF93FF9385E491E076
:1004B0000E944D01FF91EF91BF91AF919F918F915C
:1004C0007F916F915F914F913F912F910F900FBE50
:1004D0000F901F9018951F920F920FB60F92112434
:1004E0002F938F939F93EF93FF93E0915501F0919A
:1004F00056018081E0915B01F0915C0182FD1BC09F
:10050000908180915E018F5F8F7320915F018217D0
:1005100041F0E0915E01F0E0EB5BFE4F958F809340
:100520005E01FF91EF919F918F912F910F900FBEE0
:100530000F901F9018958081F4CF789484B58260D5
:1005400084BD84B5816084BD85B5826085BD85B577
:10055000816085BD80916E00816080936E001092F5
:100560008100809181008260809381008091810070
:100570008160809381008091800081608093800001
:100580008091B10084608093B1008091B00081605F
:100590008093B00080917A00846080937A0080918B
:1005A0007A00826080937A0080917A0081608093E3
:1005B0007A0080917A00806880937A001092C1005E
:1005C000E0915501F091560182E08083E091550160
:1005D000F09156011082E0915101F0915201108288
:1005E000E0915301F091540180E1808310925D010C
:1005F000E0915901F0915A0186E08083E091570122
:10060000F0915801808180618083E0915701F091E1
:100610005801808188608083E0915701F0915801F2
:10062000808180688083E0915701F091580180813A
:100630008F7D8083E2E9F0E02491EEE7F0E08491A1
:10064000882399F090E0880F991FFC01E859FF4F2B
:10065000A591B491FC01EE58FF4F859194918FB70D
:10066000F894EC91E22BEC938FBFEEE9F0E024914B
:10067000EAE8F0E084918823C1F090E0880F991FA8
:10068000FC01E859FF4FC591D491FC01EE58FF4F92
:10069000A591B4919FB7F8948881E22FE0958E23BD
:1006A00088838C91E823EC939FBFC0E400E010E0C6
:1006B000C0937C0080917A00806480937A0080915E
:1006C0007A0086FDFCCF80917800909179008D3280
:1006D0009140C4F481E00E94870082E191E00E9491
:1006E000EE0189E291E00E94EE018EE40E94DC01BD
:1006F00001151105E9F20E9439018823C9F20E940F
:100700000000D6CF80E00E9487008CE291E00E943A
:10071000EE0189E291E00E94EE0186E4E7CFE5E494
:10072000F1E01382128288EE93E0A0E0B0E08483CF
:100730009583A683B78384E091E09183808385ECE1
:1007400090E09587848784EC90E09787868780EC9B
:1007500090E0918B808B81EC90E0938B828B82EC8C
:1007600090E0958B848B86EC90E0978B868B118E36
:10077000128E138E148E0895EE0FFF1F0590F491C4
:08078000E02D0994F894FFCF6D
:10078800000000006F01CF00FC00BC012D010B012F
:100798001F014C4452206973204441524B2C204C79
:1007A8004544206973204F4E000D0A002D2D2D2D34
:0C07B8002D2D2D2D2D2D2D2D2D2D2D0046
:00000001FF
