:100000000C945D000C9485000C9485000C94850084
:100010000C9485000C9485000C9485000C9485004C
:100020000C9485000C9485000C9485000C9485003C
:100030000C9485000C9485000C9485000C9485002C
:100040000C94B9010C9485000C9429020C940302C1
:100050000C9485000C9485000C9485000C9485000C
:100060000C9485000C9485000000000024002700FB
:100070002A0000000000250028002B0004040404CE
:100080000404040402020202020203030303030342
:10009000010204081020408001020408102001021F
:1000A00004081020000000080002010000030407FB
:1000B0000000000000000000CB0311241FBECFEFA2
:1000C000D8E0DEBFCDBF11E0A0E0B1E0E0E0F8E0B5
:1000D00002C005900D92AC31B107D9F721E0ACE137
:1000E000B1E001C01D92A63CB207E1F710E0CDE5FA
:1000F000D0E004C02197FE010E94F803CC35D1075F
:10010000C9F70E945B020C94FE030C9400003FB7F9
:10011000F8948091C2019091C301A091C401B09163
:10012000C50126B5A89B05C02F3F19F00196A11D5A
:10013000B11D3FBFBA2FA92F982F8827BC01CD0131
:10014000620F711D811D911D42E0660F771F881F90
:10015000991F4A95D1F70895AF92BF92CF92DF923F
:10016000EF92FF920F931F93CF93DF936C017B016C
:100170008B01040F151FEB015E01AE18BF08C017FD
:10018000D10759F06991D601ED91FC910190F08170
:10019000E02DC6010995892B79F7C501DF91CF9133
:1001A0001F910F91FF90EF90DF90CF90BF90AF9095
:1001B0000895FC01538D448D252F30E0842F90E06D
:1001C000821B930B541710F0CF9608950197089552
:1001D000FC01918D828D981761F0A28DAE0FBF2F1B
:1001E000B11D5D968C91928D9F5F9F73928F90E071
:1001F00008958FEF9FEF0895FC01918D828D9817E0
:1002000031F0828DE80FF11D858D90E008958FEF1C
:100210009FEF0895FC01918D228D892F90E0805CE5
:100220009F4F821B91098F73992708958CE191E06C
:100230000E940A0121E0892B09F420E0822F089511
:1002400080E090E0892B29F00E94160181110C9426
:1002500000000895FC01A48DA80FB92FB11DA35A69
:10026000BF4F2C91848D90E001968F739927848FD6
:10027000A689B7892C93A089B1898C9183708064F9
:100280008C93938D848D981306C00288F389E02D9A
:1002900080818F7D80830895EF92FF920F931F934B
:1002A000CF93DF93EC0181E0888F9B8D8C8D981329
:1002B0001AC0E889F989808185FF15C09FB7F89435
:1002C000EE89FF896083E889F98980818370806481
:1002D00080839FBF81E090E0DF91CF911F910F91CC
:1002E000FF90EF900895F62E0B8D10E00F5F1F4FDB
:1002F0000F731127E02E8C8D8E110CC00FB607FCEA
:10030000FACFE889F989808185FFF5CFCE010E9477
:100310002A01F1CFEB8DEC0FFD2FF11DE35AFF4FBA
:10032000F0829FB7F8940B8FEA89FB898081806205
:10033000CFCFCF93DF93EC01888D8823B9F0AA89C2
:10034000BB89E889F9898C9185FD03C0808186FD90
:100350000DC00FB607FCF7CF8C9185FFF2CF8081DF
:1003600085FFEDCFCE010E942A01E9CFDF91CF9129
:1003700008951F920F920FB60F9211242F933F935F
:100380008F939F93AF93BF938091BE019091BF01D4
:10039000A091C001B091C1013091BD0123E0230FB4
:1003A0002D3758F50196A11DB11D2093BD018093F5
:1003B000BE019093BF01A093C001B093C101809191
:1003C000C2019091C301A091C401B091C5010196F1
:1003D000A11DB11D8093C2019093C301A093C401DC
:1003E000B093C501BF91AF919F918F913F912F9194
:1003F0000F900FBE0F901F90189526E8230F0296BE
:10040000A11DB11DD2CF1F920F920FB60F921124D2
:100410002F933F934F935F936F937F938F939F930C
:10042000AF93BF93EF93FF938CE191E00E942A0179
:10043000FF91EF91BF91AF919F918F917F916F91BC
:100440005F914F913F912F910F900FBE0F901F9092
:1004500018951F920F920FB60F9211242F938F931E
:100460009F93EF93FF93E0912C01F0912D018081F8
:10047000E0913201F091330182FD1BC090818091A7
:1004800035018F5F8F7320913601821741F0E09123
:100490003501F0E0E45EFE4F958F80933501FF91CA
:1004A000EF919F918F912F910F900FBE0F901F9002
:1004B00018958081F4CF789484B5826084BD84B52A
:1004C000816084BD85B5826085BD85B5816085BD4F
:1004D00080916E00816080936E0010928100809107
:1004E000810082608093810080918100816080938F
:1004F0008100809180008160809380008091B100B4
:1005000084608093B1008091B00081608093B000DE
:1005100080917A00846080937A0080917A00826072
:1005200080937A0080917A00816080937A00809134
:100530007A00806880937A001092C100E0912C01CB
:10054000F0912D0182E08083E0912C01F0912D014A
:100550001082E0912801F09129011082E0912A0196
:10056000F0912B0180E1808310923401E091300101
:10057000F091310186E08083E0912E01F0912F010E
:10058000808180618083E0912E01F0912F01808134
:1005900088608083E0912E01F0912F018081806836
:1005A0008083E0912E01F0912F0180818F7D8083E7
:1005B0002CE131E0A2E1B1E08D919D919927FC0100
:1005C000E057FF4F449184589F4FFC01849188234A
:1005D00099F090E0880F991FFC01E859FF4FC591F1
:1005E000D491FC01EE58FF4F859194918FB7F89408
:1005F000E881E42BE8838FBF2A173B07E9F600E088
:1006000010E0C1E0D0E0A2E1B1E030E020E04091B4
:10061000BB015091BC018D919D919927FC01EC5536
:10062000FF4F7491FC01E057FF4F6491FC01E458C7
:10063000FF4FE491EE2301F1772359F0733009F471
:1006400074C008F067C0713009F475C0723009F4E5
:1006500076C0F0E0EE0FFF1FEE58FF4F85919491AA
:100660007FB7F894FC012417350709F475C0408161
:100670006095642360837FBF2F5F3F4F2530310536
:1006800009F0C5CF2091B9013091BA01211531058A
:1006900009F06BC08091BB019091BC018230910543
:1006A0000CF45DC0D093BA01C093B901D093BC01E2
:1006B000C093BB010E9487004B015C018AEFC82EEA
:1006C000D12CE12CF12C0E948700681979098A0944
:1006D0009B09683E734081059105A8F3F1E0CF1AAC
:1006E000D108E108F10828EE820E23E0921EA11C39
:1006F000B11CC114D104E104F10429F7011511055D
:1007000009F481CF0E941601882309F47CCF0E944E
:10071000000079CF7730B1F07830D1F0743009F043
:1007200098CF809180008F7D03C0809180008F776B
:10073000809380008ECF84B58F7784BD8ACF84B5B7
:100740008F7DFBCF8091B0008F778093B00081CFF9
:100750008091B0008F7DF9CF4081642B8BCF0196C3
:100760009093BC018093BB01A5CF2130310509F0E6
:10077000A1CF8091BB019091BC01181619064CF0D5
:100780001092BA011092B9013093BC012093BB01C1
:1007900091CF0197E5CFECE1F1E01382128288EE70
:1007A00093E0A0E0B0E084839583A683B78384E0E0
:1007B00091E09183808385EC90E09587848784EC39
:1007C00090E09787868780EC90E0918B808B81EC1E
:1007D00090E0938B828B82EC90E0958B848B86ECFF
:1007E00090E0978B868B118E128E138E148E089547
:1007F000EE0FFF1F0590F491E02D0994F894FFCFC0
:10080000000000004C01AC00D90099010A01E80089
:0C081000FC000300050006000A000B00BD
:00000001FF
