:100000000C945C000C946E000C946E000C946E00CA
:100010000C946E000C946E000C946E000C946E00A8
:100020000C946E000C946E000C946E000C946E0098
:100030000C946E000C946E000C946E000C946E0088
:100040000C9400010C946E000C946E000C946E00E5
:100050000C946E000C946E000C946E000C946E0068
:100060000C946E000C946E00000000080002010069
:100070000003040700000000000000000000000072
:10008000250028002B0000000000240027002A0083
:10009000040404040404040402020202020203032E
:1000A0000303030301020408102040800102040836
:1000B000102001020408102011241FBECFEFD8E049
:1000C000DEBFCDBF21E0A0E0B1E001C01D92AA30AB
:1000D000B207E1F70E944A010C940B020C94000055
:1000E00090E0FC01EC55FF4F249180579F4FFC019D
:1000F0008491882399F090E0880F991FFC01EA57BA
:10010000FF4FA591B491FC01E458FF4F8591949164
:100110008FB7F894EC91E22BEC938FBF089590E0A9
:10012000FC01E859FF4F2491FC01EC55FF4F34913D
:10013000FC01E057FF4FE491EE23C9F0222339F090
:10014000233001F1A8F4213019F1223029F1F0E037
:10015000EE0FFF1FE458FF4FA591B4918FB7F894AD
:10016000EC91611126C030953E233C938FBF0895DA
:100170002730A9F02830C9F0243049F78091800059
:100180008F7D03C0809180008F7780938000DFCFC8
:1001900084B58F7784BDDBCF84B58F7DFBCF809115
:1001A000B0008F778093B000D2CF8091B0008F7D68
:1001B000F9CF3E2BDACF3FB7F894809106019091AA
:1001C0000701A0910801B091090126B5A89B05C0BF
:1001D0002F3F19F00196A11DB11D3FBFBA2FA92FC6
:1001E000982F8827BC01CD01620F711D811D911DC3
:1001F00042E0660F771F881F991F4A95D1F708952F
:100200001F920F920FB60F9211242F933F938F934B
:100210009F93AF93BF938091020190910301A091AE
:100220000401B09105013091010123E0230F2D3726
:1002300058F50196A11DB11D209301018093020183
:1002400090930301A0930401B093050180910601EE
:1002500090910701A0910801B09109010196A11D9B
:10026000B11D8093060190930701A0930801B093FC
:100270000901BF91AF919F918F913F912F910F9065
:100280000FBE0F901F90189526E8230F0296A11D10
:10029000B11DD2CF789484B5826084BD84B581606D
:1002A00084BD85B5826085BD85B5816085BD809141
:1002B0006E00816080936E001092810080918100B9
:1002C00082608093810080918100816080938100B1
:1002D000809180008160809380008091B100846073
:1002E0008093B1008091B00081608093B0008091D4
:1002F0007A00846080937A0080917A008260809393
:100300007A0080917A00816080937A0080917A00EF
:10031000806880937A001092C10082E00E94700091
:1003200084E00E94700086E00E94700000E010E00F
:1003300060E082E00E948F0060E084E00E948F0015
:1003400060E086E00E948F00C0910001C73008F095
:1003500059C0EC2FF0E0E055FE4F61E00C9405022F
:10036000B701ED01F301E901EF01F501F70182E0C9
:100370000E948F00CF5FC09300010E94DB004B0101
:100380005C0188EEC82E83E0D82EE12CF12C0E946F
:10039000DB00681979098A099B09683E7340810569
:1003A0009105A8F321E0C21AD108E108F10888EE0E
:1003B000880E83E0981EA11CB11CC114D104E10475
:1003C000F10429F70115110509F4B2CF0E940000CC
:1003D000AFCF82E00E948F0061E086E0C9CF86E067
:1003E0000E948F0061E084E0C3CF82E0F9CF82E019
:1003F0000E948F0061E084E00E948F0061E086E04F
:100400000E948F0010920001B8CFEE0FFF1F0590E1
:0A041000F491E02D0994F894FFCF59
:00000001FF
