:100000000C9462000C948A000C948A000C948A0070
:100010000C948A000C948A000C948A000C948A0038
:100020000C948A000C948A000C948A000C948A0028
:100030000C948A000C948A000C948A000C948A0018
:100040000C948D020C948A000C94FD020C94D7023F
:100050000C948A000C948A000C948A000C948A00F8
:100060000C948A000C948A000000000024002700F1
:100070002A0000000000250028002B0000000000DE
:1000800023002600290004040404040404040202DA
:100090000202020203030303030301020408102007
:1000A0004080010204081020010204081020000012
:1000B0000008000201000003040700000000000027
:1000C0000000A30411241FBECFEFD8E0DEBFCDBFD8
:1000D00011E0A0E0B1E0E0EBF9E002C005900D9284
:1000E000A431B107D9F721E0A4E1B1E001C01D922C
:1000F000A33CB207E1F710E0C2E6D0E004C02197CC
:10010000FE010E94D004C136D107C9F70E942F0317
:100110000C94D6040C940000833081F028F48130D4
:1001200099F08230A9F008958730A9F08830C9F09D
:100130008430B1F4809180008F7D03C08091800075
:100140008F7780938000089584B58F7784BD08955C
:1001500084B58F7DFBCF8091B0008F778093B00006
:1001600008958091B0008F7DF9CFCF93DF93282F32
:1001700030E0F901E255FF4F8491F901E656FF4F57
:10018000D491F901EA57FF4FC491CC23A1F081111A
:100190000E948C00EC2FF0E0EE0FFF1FE458FF4FA1
:1001A000A591B491EC91ED2381E090E009F480E019
:1001B000DF91CF91089580E090E0FACF1F93CF9325
:1001C000DF93282F30E0F901E255FF4F8491F901C8
:1001D000E656FF4FD491F901EA57FF4FC491CC2363
:1001E000A9F0162F81110E948C00EC2FF0E0EE0F89
:1001F000FF1FEE58FF4FA591B4918FB7F894EC9183
:10020000111108C0D095DE23DC938FBFDF91CF9111
:100210001F910895DE2BF8CFCF93DF9390E0FC0180
:10022000E656FF4F24918A579F4FFC018491882303
:10023000D1F090E0880F991FFC01E859FF4FA5917C
:10024000B491FC01EE58FF4FC591D49161110EC0DD
:100250009FB7F8948C91E22FE0958E238C932881A0
:10026000E223E8839FBFDF91CF9108958FB7F89481
:10027000EC91E22BEC938FBFF6CF3FB7F8948091CF
:10028000BF019091C001A091C101B091C20126B5FA
:10029000A89B05C02F3F19F00196A11DB11D3FBFBE
:1002A000BA2FA92F982F8827BC01CD01620F711D8D
:1002B000811D911D42E0660F771F881F991F4A9587
:1002C000D1F708952FB7F8946091BB017091BC01EC
:1002D0008091BD019091BE012FBF0895AF92BF9252
:1002E000CF92DF92EF92FF920F931F93CF93DF9302
:1002F0006C017B018B01040F151FEB015E01AE1831
:10030000BF08C017D10759F06991D601ED91FC9152
:100310000190F081E02DC6010995892B79F7C5017F
:10032000DF91CF911F910F91FF90EF90DF90CF90D1
:10033000BF90AF900895FC01538D448D252F30E080
:10034000842F90E0821B930B541710F0CF960895E2
:1003500001970895FC01918D828D981761F0A28D0F
:10036000AE0FBF2FB11D5D968C91928D9F5F9F73D5
:10037000928F90E008958FEF9FEF0895FC01918D8B
:10038000828D981731F0828DE80FF11D858D90E0F8
:1003900008958FEF9FEF0895FC01918D228D892F95
:1003A00090E0805C9F4F821B91098F73992708957D
:1003B0008DE191E00E94CC0121E0892B09F420E03D
:1003C000822F089580E090E0892B29F00E94D801C7
:1003D00081110C9400000895FC01A48DA80FB92F81
:1003E000B11DA35ABF4F2C91848D90E001968F735D
:1003F0009927848FA689B7892C93A089B1898C917C
:10040000837080648C93938D848D981306C00288CA
:10041000F389E02D80818F7D80830895EF92FF9294
:100420000F931F93CF93DF93EC0181E0888F9B8D17
:100430008C8D98131AC0E889F989808185FF15C0D1
:100440009FB7F894EE89FF896083E889F9898081F4
:100450008370806480839FBF81E090E0DF91CF91C3
:100460001F910F91FF90EF900895F62E0B8D10E0E5
:100470000F5F1F4F0F731127E02E8C8D8E110CC054
:100480000FB607FCFACFE889F989808185FFF5CF9F
:10049000CE010E94EC01F1CFEB8DEC0FFD2FF11D91
:1004A000E35AFF4FF0829FB7F8940B8FEA89FB89DC
:1004B00080818062CFCFCF93DF93EC01888D88233A
:1004C000B9F0AA89BB89E889F9898C9185FD03C0B7
:1004D000808186FD0DC00FB607FCF7CF8C9185FF9C
:1004E000F2CF808185FFEDCFCE010E94EC01E9CFF4
:1004F000DF91CF910895CF93C82F68EC8DE191E003
:100500000E940E026C2F8DE191E00E940E026DE0C0
:100510008DE191E0CF910C940E021F920F920FB6D5
:100520000F9211242F933F938F939F93AF93BF9379
:100530008091BB019091BC01A091BD01B091BE0121
:100540003091BA0123E0230F2D3758F50196A11DF4
:10055000B11D2093BA018093BB019093BC01A0937D
:10056000BD01B093BE018091BF019091C001A091E7
:10057000C101B091C2010196A11DB11D8093BF01BF
:100580009093C001A093C101B093C201BF91AF91FC
:100590009F918F913F912F910F900FBE0F901F90C1
:1005A000189526E8230F0296A11DB11DD2CF1F92E8
:1005B0000F920FB60F9211242F933F934F935F9397
:1005C0006F937F938F939F93AF93BF93EF93FF931B
:1005D0008DE191E00E94EC01FF91EF91BF91AF910D
:1005E0009F918F917F916F915F914F913F912F914B
:1005F0000F900FBE0F901F9018951F920F920FB67D
:100600000F9211242F938F939F93EF93FF93E09179
:100610002D01F0912E018081E0913301F0913401A0
:1006200082FD1BC09081809136018F5F8F73209176
:100630003701821741F0E0913601F0E0E35EFE4FB2
:10064000958F80933601FF91EF919F918F912F911C
:100650000F900FBE0F901F9018958081F4CF789463
:1006600084B5826084BD84B5816084BD85B58260B7
:1006700085BD85B5816085BD80916E008160809368
:100680006E001092810080918100826080938100D1
:1006900080918100816080938100809180008160E1
:1006A000809380008091B10084608093B10080913C
:1006B000B00081608093B00080917A008460809364
:1006C0007A0080917A00826080937A0080917A002B
:1006D000816080937A0080917A00806880937A00AC
:1006E0001092C100E0912D01F0912E0182E08083F3
:1006F000E0912D01F0912E011082E0912901F091FD
:100700002A011082E0912B01F0912C0180E180837D
:1007100010923501E0913101F091320186E0808341
:10072000E0912F01F0913001808180618083E09120
:100730002F01F0913001808188608083E0912F014A
:10074000F0913001808180688083E0912F01F091E9
:10075000300180818F7D808361E084E00E940C0104
:1007600061E085E00E940C0160E08AE00E940C01DB
:1007700060E089E00E940C0160E084E00E94DE00FD
:1007800061E085E00E94DE0081E090E0909301014D
:10079000809300010E9462016093190170931A0115
:1007A00080931B0190931C0100E010E0AA24A39405
:1007B000B12CCFEFDFEF8DE191E00E94CC01181654
:1007C00019063CF48DE191E00E94AA01EC01DD27BD
:1007D000F2CF0E946201C0901901D0901A01E090FE
:1007E0001B01F0901C016C197D098E099F0965366B
:1007F00071058105910508F4A0C08AE00E94B5004A
:100800006C018AE00E94B5000197D9F389E00E944B
:10081000B5007C0189E00E94B5000197D9F30E94E0
:1008200062016093190170931A0180931B019093E8
:100830001C01CD2819F4C130D10559F410920101E1
:100840001092000160E085E00E94DE0081E00E94DD
:100850007B02EF2809F46DC0B0920101A092000163
:1008600060E084E00E94DE0061E085E00E94DE003E
:1008700080E00E947B028091000190910101892B10
:1008800041F50E946201C0901501D0901601E090E0
:100890001701F09018016C197D098E099F09653FB9
:1008A000714081059105A8F0C09114016C2F84E07E
:1008B0000E94DE0081E0C11180E0809314010E945B
:1008C0006201609315017093160180931701909354
:1008D00018010E943D012B013C018AE0C82ED12C59
:1008E000E12CF12C0E943D016419750986099709D4
:1008F000683E734081059105A8F381E0C81AD108CC
:10090000E108F10828EE420E23E0521E611C711C22
:10091000C114D104E104F10429F70115110509F40A
:1009200048CF0E94D801882309F443CF0E940000D9
:1009300040CFCD2B09F490CF9ECFC130D105C9F760
:10094000F12CE12C7BCFEDE1F1E01382128288EEF5
:1009500093E0A0E0B0E084839583A683B78386E02C
:1009600091E09183808385EC90E09587848784EC87
:1009700090E09787868780EC90E0918B808B81EC6C
:1009800090E0938B828B82EC90E0958B848B86EC4D
:1009900090E0978B868B118E128E138E148E089595
:1009A000EE0FFF1F0590F491E02D0994F894FFCF0E
:1009B000FFFF000000000E026E019B015B02CC01F4
:0409C000AA01BE01C9
:00000001FF
