:100000000C945D000C9485000C9485000C94850084
:100010000C9485000C9485000C9485000C9485004C
:100020000C9485000C9485000C9485000C9485003C
:100030000C9485000C9485000C9485000C9485002C
:100040000C9424020C9485000C9494020C946E027F
:100050000C9485000C9485000C9485000C9485000C
:100060000C9485000C94850000000008000201003B
:100070000003040700000000000000000000000072
:10008000250028002B0000000000240027002A0083
:10009000040404040404040402020202020203032E
:1000A0000303030301020408102040800102040836
:1000B0001020010204081020070411241FBECFEFF6
:1000C000D8E0DEBFCDBF11E0A0E0B1E0E8E1F9E0AB
:1000D00002C005900D92A231B107D9F721E0A2E14B
:1000E000B1E001C01D92AC3BB207E1F710E0CDE5F5
:1000F000D0E004C02197FE010E948404CC35D107D2
:10010000C9F70E94C6020C948A040C94000090E087
:10011000FC01EC55FF4F249180579F4FFC018491C7
:10012000882399F090E0880F991FFC01EA57FF4F50
:10013000A591B491FC01E458FF4F859194918FB73C
:10014000F894EC91E22BEC938FBF089590E0FC01C2
:10015000E859FF4F2491FC01EC55FF4F3491FC010D
:10016000E057FF4FE491EE23C9F0222339F023300A
:1001700001F1A8F4213019F1223029F1F0E0EE0F5D
:10018000FF1FE458FF4FA591B4918FB7F894EC91FD
:10019000611126C030953E233C938FBF08952730D0
:1001A000A9F02830C9F0243049F7809180008F7D74
:1001B00003C0809180008F7780938000DFCF84B56B
:1001C0008F7784BDDBCF84B58F7DFBCF8091B0006E
:1001D0008F778093B000D2CF8091B0008F7DF9CF20
:1001E0003E2BDACF3FB7F8948091B8019091B901D6
:1001F000A091BA01B091BB0126B5A89B05C02F3FC5
:1002000019F00196A11DB11D3FBFBA2FA92F982F3C
:100210008827BC01CD01620F711D811D911D42E037
:10022000660F771F881F991F4A95D1F70895AF92DF
:10023000BF92CF92DF92EF92FF920F931F93CF93D3
:10024000DF936C017B018B01040F151FEB015E0135
:10025000AE18BF08C017D10759F06991D601ED91CA
:10026000FC910190F081E02DC6010995892B79F769
:10027000C501DF91CF911F910F91FF90EF90DF901B
:10028000CF90BF90AF900895FC01538D448D252FE2
:1002900030E0842F90E0821B930B541710F0CF9620
:1002A000089501970895FC01918D828D981761F052
:1002B000A28DAE0FBF2FB11D5D968C91928D9F5F69
:1002C0009F73928F90E008958FEF9FEF0895FC0148
:1002D000918D828D981731F0828DE80FF11D858DFB
:1002E00090E008958FEF9FEF0895FC01918D228D8E
:1002F000892F90E0805C9F4F821B91098F73992713
:10030000089582E191E00E94750121E0892B09F4B2
:1003100020E0822F089580E090E0892B29F00E9450
:10032000810181110C9400000895FC01A48DA80F97
:10033000B92FB11DA35ABF4F2C91848D90E0019627
:100340008F739927848FA689B7892C93A089B18947
:100350008C91837080648C93938D848D981306C0E8
:100360000288F389E02D80818F7D80830895EF924C
:10037000FF920F931F93CF93DF93EC0181E0888F5F
:100380009B8D8C8D98131AC0E889F989808185FF2F
:1003900015C09FB7F894EE89FF896083E889F989D1
:1003A00080818370806480839FBF81E090E0DF91D3
:1003B000CF911F910F91FF90EF900895F62E0B8D26
:1003C00010E00F5F1F4F0F731127E02E8C8D8E11E1
:1003D0000CC00FB607FCFACFE889F989808185FF48
:1003E000F5CFCE010E949501F1CFEB8DEC0FFD2FE3
:1003F000F11DE35AFF4FF0829FB7F8940B8FEA8903
:10040000FB8980818062CFCFCF93DF93EC01888D11
:100410008823B9F0AA89BB89E889F9898C9185FD7F
:1004200003C0808186FD0DC00FB607FCF7CF8C910D
:1004300085FFF2CF808185FFEDCFCE010E9495012F
:10044000E9CFDF91CF9108951F920F920FB60F92CF
:1004500011242F933F938F939F93AF93BF938091DA
:10046000B4019091B501A091B601B091B70130915E
:10047000B30123E0230F2D3758F50196A11DB11DBF
:100480002093B3018093B4019093B501A093B6017A
:10049000B093B7018091B8019091B901A091BA01D0
:1004A000B091BB010196A11DB11D8093B80190933D
:1004B000B901A093BA01B093BB01BF91AF919F91D5
:1004C0008F913F912F910F900FBE0F901F90189515
:1004D00026E8230F0296A11DB11DD2CF1F920F92C5
:1004E0000FB60F9211242F933F934F935F936F9307
:1004F0007F938F939F93AF93BF93EF93FF9382E18B
:1005000091E00E949501FF91EF91BF91AF919F9172
:100510008F917F916F915F914F913F912F910F90AC
:100520000FBE0F901F9018951F920F920FB60F924B
:1005300011242F938F939F93EF93FF93E0912201C8
:10054000F09123018081E0912801F091290182FD41
:100550001BC0908180912B018F5F8F7320912C01A4
:10056000821741F0E0912B01F0E0EE5EFE4F958F97
:1005700080932B01FF91EF919F918F912F910F907D
:100580000FBE0F901F9018958081F4CF789484B59A
:10059000826084BD84B5816084BD85B5826085BD7F
:1005A00085B5816085BD80916E00816080936E000D
:1005B00010928100809181008260809381008091FF
:1005C00081008160809381008091800081608093B0
:1005D00080008091B10084608093B1008091B00070
:1005E00081608093B00080917A00846080937A006B
:1005F00080917A00826080937A0080917A00816095
:1006000080937A0080917A00806880937A001092BB
:10061000C100E0912201F091230182E08083E0910A
:100620002201F09123011082E0911E01F0911F013F
:100630001082E0912001F091210180E180831092ED
:100640002A01E0912601F091270186E08083E09164
:100650002401F0912501808180618083E091240153
:10066000F0912501808188608083E0912401F091E0
:100670002501808180688083E0912401F09125012B
:1006800080818F7D808384E00E94870085E00E94C6
:10069000870086E00E948700D0E488248A9423E0C3
:1006A000922EA12CB12C00E010E0D0937C00809120
:1006B0007A00806480937A0080917A0086FDFCCF76
:1006C000E0907800F0907900C1E026E5E21621E0A4
:1006D000F20640F0C70186559140C3E08535914050
:1006E00008F4C2E060E084E00E94A60060E085E0DB
:1006F0000E94A60060E086E00E94A60061E085E01E
:10070000C23021F084E0C33009F486E00E94A600E4
:100710002FB7F8948091B4019091B501A091B601E2
:10072000B091B7012FBF4091AF015091B0016091DE
:10073000B1017091B201841B950BA60BB70B853FDD
:100740009140A105B10598F19701A4E6B0E00E949F
:100750007504A50194010E943404690168EC82E1EA
:1007600091E00E94B7016C2D82E191E00E94B701F7
:10077000CD2CDD246C2D82E191E00E94B7016DE06B
:1007800082E191E00E94B7012FB7F8948091B40103
:100790009091B501A091B601B091B7012FBF8093A0
:1007A000AF019093B001A093B101B093B2010E9448
:1007B000F2002B013C0184E1C82ED12CE12CF12C5C
:1007C0000E94F2006419750986099709683E734012
:1007D00081059105A8F381E0C81AD108E108F10864
:1007E00028EE420E23E0521E611C711CC114D1047C
:1007F000E104F10429F70115110509F456CF0E940F
:100800008101882309F451CF0E9400004ECFE2E11C
:10081000F1E01382128288EE93E0A0E0B0E08483DE
:100820009583A683B78384E091E09183808385ECF0
:1008300090E09587848784EC90E09787868780ECAA
:1008400090E0918B808B81EC90E0938B828B82EC9B
:1008500090E0958B848B86EC90E0978B868B118E45
:10086000128E138E148E0895052E97FB1EF400949D
:100870000E944B0457FD07D00E94530407FC03D08D
:100880004EF40C944B0450954095309521953F4F74
:100890004F4F5F4F089590958095709561957F4F6C
:1008A0008F4F9F4F0895A1E21A2EAA1BBB1BFD017B
:1008B0000DC0AA1FBB1FEE1FFF1FA217B307E4073F
:1008C000F50720F0A21BB30BE40BF50B661F771F97
:1008D000881F991F1A9469F7609570958095909577
:1008E0009B01AC01BD01CF010895A29FB001B39F50
:1008F000C001A39F700D811D1124911DB29F700D29
:10090000811D1124911D0895EE0FFF1F0590F49194
:08091000E02D0994F894FFCFDB
:1009180000000000B70117014401040275015301EA
:02092800670165
:00000001FF
