:100000000C945D000C9485000C9485000C94850084
:100010000C9485000C9485000C9485000C9485004C
:100020000C9485000C9485000C9485000C9485003C
:100030000C9485000C9485000C9485000C9485002C
:100040000C9433020C9485000C94A3020C947D0252
:100050000C9485000C9485000C9485000C9485000C
:100060000C9485000C9485000000000024002700FB
:100070002A0000000000250028002B0004040404CE
:100080000404040402020202020203030303030342
:10009000010204081020408001020408102001021F
:1000A00004081020000000080002010000030407FB
:1000B0000000000000000000ED0311241FBECFEF80
:1000C000D8E0DEBFCDBF11E0A0E0B1E0E4E4F8E0AD
:1000D00002C005900D92A431B107D9F721E0A4E147
:1000E000B1E001C01D92AB3BB207E1F710E0CDE5F6
:1000F000D0E004C02197FE010E941A04CC35D1073C
:10010000C9F70E94D5020C9420040C940000E7EA81
:10011000F0E02491E3E9F0E09491EFE7F0E0E4917E
:10012000EE23C9F0222339F0233001F1A8F4213065
:1001300019F1223029F1F0E0EE0FFF1FEE58FF4FCA
:10014000A591B4912FB7F894EC91811126C09095A8
:100150009E239C932FBF08952730A9F02830C9F023
:10016000243049F7209180002F7D03C0209180002A
:100170002F7720938000DFCF24B52F7724BDDBCFEE
:1001800024B52F7DFBCF2091B0002F772093B000B6
:10019000D2CF2091B0002F7DF9CF9E2BDACF3FB781
:1001A000F8948091B7019091B801A091B901B091F4
:1001B000BA0126B5A89B05C02F3F19F00196A11DD5
:1001C000B11D3FBFBA2FA92F982F8827BC01CD01A1
:1001D000620F711D811D911D42E0660F771F881F00
:1001E000991F4A95D1F708958F929F92AF92BF922F
:1001F000CF92DF92EF92FF924B015C010E94CF0001
:100200006B017C010E94CF006C197D098E099F094A
:10021000683E734081059105A8F321E0821A910898
:10022000A108B10888EEC80E83E0D81EE11CF11CBD
:1002300081149104A104B10429F7FF90EF90DF909D
:10024000CF90BF90AF909F908F900895AF92BF9244
:10025000CF92DF92EF92FF920F931F93CF93DF9392
:100260006C017B018B01040F151FEB015E01AE18C1
:10027000BF08C017D10759F06991D601ED91FC91E3
:100280000190F081E02DC6010995892B79F7C50110
:10029000DF91CF911F910F91FF90EF90DF90CF9062
:1002A000BF90AF900895FC01538D448D252F30E011
:1002B000842F90E0821B930B541710F0CF96089573
:1002C00001970895FC01918D828D981761F0A28DA0
:1002D000AE0FBF2FB11D5D968C91928D9F5F9F7366
:1002E000928F90E008958FEF9FEF0895FC01918D1C
:1002F000828D981731F0828DE80FF11D858D90E089
:1003000008958FEF9FEF0895FC01918D228D892F25
:1003100090E0805C9F4F821B91098F73992708950D
:1003200085E191E00E94840121E0892B09F420E01D
:10033000822F089580E090E0892B29F00E9490019F
:1003400081110C9400000895FC01A48DA80FB92F11
:10035000B11DA35ABF4F2C91848D90E001968F73ED
:100360009927848FA689B7892C93A089B1898C910C
:10037000837080648C93938D848D981306C002885B
:10038000F389E02D80818F7D80830895EF92FF9225
:100390000F931F93CF93DF93EC0181E0888F9B8DA8
:1003A0008C8D98131AC0E889F989808185FF15C062
:1003B0009FB7F894EE89FF896083E889F989808185
:1003C0008370806480839FBF81E090E0DF91CF9154
:1003D0001F910F91FF90EF900895F62E0B8D10E076
:1003E0000F5F1F4F0F731127E02E8C8D8E110CC0E5
:1003F0000FB607FCFACFE889F989808185FFF5CF30
:10040000CE010E94A401F1CFEB8DEC0FFD2FF11D69
:10041000E35AFF4FF0829FB7F8940B8FEA89FB896C
:1004200080818062CFCFCF93DF93EC01888D8823CA
:10043000B9F0AA89BB89E889F9898C9185FD03C047
:10044000808186FD0DC00FB607FCF7CF8C9185FF2C
:10045000F2CF808185FFEDCFCE010E94A401E9CFCC
:10046000DF91CF9108951F920F920FB60F92112432
:100470002F933F938F939F93AF93BF938091B3013B
:100480009091B401A091B501B091B6013091B20143
:1004900023E0230F2D3758F50196A11DB11D2093A0
:1004A000B2018093B3019093B401A093B501B093CE
:1004B000B6018091B7019091B801A091B901B091B6
:1004C000BA010196A11DB11D8093B7019093B801A7
:1004D000A093B901B093BA01BF91AF919F918F9151
:1004E0003F912F910F900FBE0F901F90189526E807
:1004F000230F0296A11DB11DD2CF1F920F920FB6EE
:100500000F9211242F933F934F935F936F937F9399
:100510008F939F93AF93BF93EF93FF9385E191E008
:100520000E94A401FF91EF91BF91AF919F918F9194
:100530007F916F915F914F913F912F910F900FBEDF
:100540000F901F9018951F920F920FB60F921124C3
:100550002F938F939F93EF93FF93E0912501F09159
:1005600026018081E0912B01F0912C0182FD1BC0BE
:10057000908180912E018F5F8F7320912F018217C0
:1005800041F0E0912E01F0E0EB5EFE4F958F8093FD
:100590002E01FF91EF919F918F912F910F900FBEA0
:1005A0000F901F9018958081F4CF789484B5826065
:1005B00084BD84B5816084BD85B5826085BD85B507
:1005C000816085BD80916E00816080936E00109285
:1005D0008100809181008260809381008091810000
:1005E0008160809381008091800081608093800091
:1005F0008091B10084608093B1008091B0008160EF
:100600008093B00080917A00846080937A0080911A
:100610007A00826080937A0080917A008160809372
:100620007A0080917A00806880937A001092C100ED
:10063000E0912501F091260182E08083E09125017F
:10064000F09126011082E0912101F09122011082A7
:10065000E0912301F091240180E1808310922D012B
:10066000E0912901F0912A0186E08083E091270141
:10067000F0912801808180618083E0912701F091D1
:100680002801808188608083E0912701F091280112
:10069000808180688083E0912701F091280180812A
:1006A0008F7D8083E3E9F0E02491EFE7F0E084912F
:1006B000882399F090E0880F991FFC01E859FF4FBB
:1006C000A591B491FC01EE58FF4F859194918FB79D
:1006D000F894EC91E22BEC938FBF00E010E085E101
:1006E00091E00E948401181619066CF485E191E0EE
:1006F0000E9462019927909301018093000185E196
:1007000091E00E94130280910001909101018230DA
:10071000910509F445C070F4009739F10197B1F1E2
:1007200001151105E1F20E9490018823C1F20E9497
:100730000000D5CF8330910509F43CC0C6E0D0E07D
:10074000049771F7F09014018F2D0E94870068ECD8
:1007500070E080E090E00E94F40081E0F11080E021
:1007600080931401219771F72EC0C09114018C2F32
:100770000E94870064E670E080E090E00E94F40050
:1007800081E0C11180E080931401CACFC0911401AF
:100790008C2F0E94870068EB7BE080E090E0EECF3A
:1007A000C09114018C2F0E94870064EF71E080E0FB
:1007B00090E0E4CF81E00E94870068EC70E080E088
:1007C00090E00E94F40080E00E94870068EE73E0F1
:1007D00080E090E00E94F400A3CFE5E1F1E0138215
:1007E000128288EE93E0A0E0B0E084839583A68334
:1007F000B78386E091E09183808385EC90E09587D4
:10080000848784EC90E09787868780EC90E0918BDA
:10081000808B81EC90E0938B828B82EC90E0958BC7
:10082000848B86EC90E0978B868B118E128E138EC4
:10083000148E0895EE0FFF1F0590F491E02D09949A
:04084000F894FFCF5A
:10084400020000000000C6012601530113028401C6
:0408540062017601C6
:00000001FF
