:100000000C9453000C947B000C947B000C947B00AC
:100010000C947B000C947B000C947B000C947B0074
:100020000C947B000C947B000C947B000C947B0064
:100030000C947B000C947B000C947B000C947B0054
:100040000C94E9010C947B000C9459020C9433023B
:100050000C947B000C947B000C947B000C947B0034
:100060000C947B000C947B0000000000250028000D
:100070002B0000000000240027002A0004040404D0
:100080000404040402020202020203030303030342
:10009000010204081020408001020408102001021F
:1000A00004081020BB0311241FBECFEFD8E0DEBF31
:1000B000CDBF11E0A0E0B1E0EAECFBE002C00590AA
:1000C0000D92A231B107D9F721E0A2E1B1E001C060
:1000D0001D92AA3BB207E1F710E0C3E5D0E004C0EF
:1000E0002197FE010E94DD05C235D107C9F70E94A4
:1000F0008B020C94E3050C940000CF93DF9390E007
:10010000FC01E057FF4F249184589F4FFC018491DC
:100110008823C1F090E0880F991FFC01EE58FF4F33
:10012000C591D491FC01E859FF4FA591B4919FB7B7
:10013000F8948881E22FE0958E2388838C91E823C0
:10014000EC939FBFDF91CF9108958E508064809390
:100150007C0080917A00806480937A0080917A009C
:1001600086FDFCCF809178009091790008953FB78B
:10017000F8948091B6019091B701A091B801B09127
:10018000B90126B5A89B05C02F3F19F00196A11D06
:10019000B11D3FBFBA2FA92F982F8827BC01CD01D1
:1001A000620F711D811D911D42E0660F771F881F30
:1001B000991F4A95D1F70895AF92BF92CF92DF92DF
:1001C000EF92FF920F931F93CF93DF936C017B010C
:1001D0008B01040F151FEB015E01AE18BF08C0179D
:1001E000D10759F06991D601ED91FC910190F08110
:1001F000E02DC6010995892B79F7C501DF91CF91D3
:100200001F910F91FF90EF90DF90CF90BF90AF9034
:100210000895FC01538D448D252F30E0842F90E00C
:10022000821B930B541710F0CF96089501970895F1
:10023000FC01918D828D981761F0A28DAE0FBF2FBA
:10024000B11D5D968C91928D9F5F9F73928F90E010
:1002500008958FEF9FEF0895FC01918D828D98177F
:1002600031F0828DE80FF11D858D90E008958FEFBC
:100270009FEF0895FC01918D228D892F90E0805C85
:100280009F4F821B91098F739927089582E191E016
:100290000E943A0121E0892B09F420E0822F089581
:1002A00080E090E0892B29F00E94460181110C9496
:1002B00000000895FC01A48DA80FB92FB11DA35A09
:1002C000BF4F2C91848D90E001968F739927848F76
:1002D000A689B7892C93A089B1898C918370806499
:1002E0008C93938D848D981306C00288F389E02D3A
:1002F00080818F7D80830895EF92FF920F931F93EB
:10030000CF93DF93EC0181E0888F9B8D8C8D9813C8
:100310001AC0E889F989808185FF15C09FB7F894D4
:10032000EE89FF896083E889F98980818370806420
:1003300080839FBF81E090E0DF91CF911F910F916B
:10034000FF90EF900895F62E0B8D10E00F5F1F4F7A
:100350000F731127E02E8C8D8E110CC00FB607FC89
:10036000FACFE889F989808185FFF5CFCE010E9417
:100370005A01F1CFEB8DEC0FFD2FF11DE35AFF4F2A
:10038000F0829FB7F8940B8FEA89FB8980818062A5
:10039000CFCFCF93DF93EC01888D8823B9F0AA8962
:1003A000BB89E889F9898C9185FD03C0808186FD30
:1003B0000DC00FB607FCF7CF8C9185FFF2CF80817F
:1003C00085FFEDCFCE010E945A01E9CFDF91CF9199
:1003D00008951F920F920FB60F9211242F933F93FF
:1003E0008F939F93AF93BF938091B2019091B3018C
:1003F000A091B401B091B5013091B10123E0230F78
:100400002D3758F50196A11DB11D2093B1018093A0
:10041000B2019093B301A093B401B093B501809160
:10042000B6019091B701A091B801B091B9010196C0
:10043000A11DB11D8093B6019093B701A093B8019F
:10044000B093B901BF91AF919F918F913F912F913F
:100450000F900FBE0F901F90189526E8230F02965D
:10046000A11DB11DD2CF1F920F920FB60F92112472
:100470002F933F934F935F936F937F938F939F93AC
:10048000AF93BF93EF93FF9382E191E00E945A01F3
:10049000FF91EF91BF91AF919F918F917F916F915C
:1004A0005F914F913F912F910F900FBE0F901F9032
:1004B00018951F920F920FB60F9211242F938F93BE
:1004C0009F93EF93FF93E0912201F09123018081AC
:1004D000E0912801F091290182FD1BC0908180915B
:1004E0002B018F5F8F7320912C01821741F0E091D7
:1004F0002B01F0E0EE5EFE4F958F80932B01FF9174
:10050000EF919F918F912F910F900FBE0F901F90A1
:1005100018958081F4CF789484B5826084BD84B5C9
:10052000816084BD85B5826085BD85B5816085BDEE
:1005300080916E00816080936E00109281008091A6
:10054000810082608093810080918100816080932E
:100550008100809180008160809380008091B10053
:1005600084608093B1008091B00081608093B0007E
:1005700080917A00846080937A0080917A00826012
:1005800080937A0080917A00816080937A008091D4
:100590007A00806880937A001092C100E091220175
:1005A000F091230182E08083E0912201F091230108
:1005B0001082E0911E01F0911F011082E091200154
:1005C000F091210180E1808310922A01E0912601BF
:1005D000F091270186E08083E0912401F0912501CC
:1005E000808180618083E0912401F09125018081E8
:1005F00088608083E0912401F091250180818068EA
:100600008083E0912401F091250180818F7D80839A
:1006100084E10E947D008EE00E947D0044244A9483
:1006200093E0592E612C712CC0E0D0E08FB7F89484
:100630004091B2015091B3016091B4017091B50144
:100640008FBF8091AF019091B001092E000CAA0BD1
:10065000BB0B6A017B01C81AD90AEA0AFB0AD70157
:10066000C601F12C853F9140A105B10580F1509361
:10067000B0014093AF0184E10E94A500BC01990F35
:10068000880B990B0E94DD0420E030E040EA50E442
:100690000E9469050E94A504072E000C880B990B87
:1006A0000E94DD0420E030E040E85AE30E94690542
:1006B00020E030E040E05FE30E94380420E030E0DA
:1006C00048EC52E40E9469050E94A504F62E8EE0D3
:1006D0000E94A50024E630E0DC010E94D605A301BB
:1006E00092010E94E8031F2D00E07801E22AF32A1C
:1006F00068EC82E191E00E947C016E2D82E191E044
:100700000E947C016F2D82E191E00E947C016DE0EE
:1007100082E191E00E947C010E94B7004B015C01E4
:100720008AE0C82ED12CE12CF12C0E94B700681968
:1007300079098A099B09683E734081059105A8F3F0
:1007400081E0C81AD108E108F10828EE820E23E002
:10075000921EA11CB11CC114D104E104F10429F7BB
:10076000209709F463CF0E944601882309F45ECFE5
:100770000E9400005BCFE2E1F1E01382128288EE7A
:1007800093E0A0E0B0E084839583A683B78384E000
:1007900091E09183808385EC90E09587848784EC59
:1007A00090E09787868780EC90E0918B808B81EC3E
:1007B00090E0938B828B82EC90E0958B848B86EC1F
:1007C00090E0978B868B118E128E138E148E089567
:1007D000052E97FB1EF400940E94FF0357FD07D0DF
:1007E0000E94070407FC03D04EF40C94FF035095BD
:1007F0004095309521953F4F4F4F5F4F089590950D
:100800008095709561957F4F8F4F9F4F0895A1E21E
:100810001A2EAA1BBB1BFD010DC0AA1FBB1FEE1F7A
:10082000FF1FA217B307E407F50720F0A21BB30BC5
:10083000E40BF50B661F771F881F991F1A9469F741
:1008400060957095809590959B01AC01BD01CF019D
:100850000895A29FB001B39FC001A39F700D811D99
:100860001124911DB29F700D811D1124911D0895B9
:100870005058BB27AA270E9450040C942F050E94B1
:10088000210538F00E94280520F039F49F3F19F423
:1008900026F40C941E050EF4E095E7FB0C94180565
:1008A000E92F0E94400558F3BA17620773078407BF
:1008B000950720F079F4A6F50C9462050EF4E09506
:1008C0000B2EBA2FA02D0B01B90190010C01CA010A
:1008D000A0011124FF27591B99F0593F50F4503EB5
:1008E00068F11A16F040A22F232F342F4427585FA7
:1008F000F3CF469537952795A795F0405395C9F7BF
:100900007EF41F16BA0B620B730B840BBAF0915076
:10091000A1F0FF0FBB1F661F771F881FC2F70EC015
:10092000BA0F621F731F841F48F4879577956795E8
:10093000B795F7959E3F08F0B0CF9395880F08F0D4
:100940009927EE0F9795879508950E94AC046894B7
:10095000B1110C94630508950E94480588F09F57D3
:1009600098F0B92F9927B751B0F0E1F0660F771FD3
:10097000881F991F1AF0BA95C9F714C0B13091F0C9
:100980000E946205B1E008950C946205672F782FEC
:100990008827B85F39F0B93FCCF38695779567958E
:1009A000B395D9F73EF490958095709561957F4FFA
:1009B0008F4F9F4F0895E89409C097FB3EF49095A0
:1009C0008095709561957F4F8F4F9F4F9923A9F028
:1009D000F92F96E9BB279395F695879577956795B7
:1009E000B795F111F8CFFAF4BB0F11F460FF1BC0FB
:1009F0006F5F7F4F8F4F9F4F16C0882311F096E98E
:100A000011C0772321F09EE8872F762F05C066233B
:100A100071F096E8862F70E060E02AF09A95660FF4
:100A2000771F881FDAF7880F9695879597F90895AD
:100A300097F99F6780E870E060E008959FEF80EC91
:100A4000089500240A941616170618060906089534
:100A500000240A9412161306140605060895092E9A
:100A60000394000C11F4882352F0BB0F40F4BF2B09
:100A700011F460FF04C06F5F7F4F8F4F9F4F089549
:100A800057FD9058440F551F59F05F3F71F047953F
:100A9000880F97FB991F61F09F3F79F08795089524
:100AA000121613061406551FF2CF4695F1DF08C043
:100AB000161617061806991FF1CF86957105610560
:100AC00008940895E894BB2766277727CB0197F908
:100AD00008950E947C050C942F050E94210538F092
:100AE0000E94280520F0952311F00C9418050C9411
:100AF0001E0511240C9463050E94400570F3959F18
:100B0000C1F3950F50E0551F629FF001729FBB2704
:100B1000F00DB11D639FAA27F00DB11DAA1F649FA0
:100B20006627B00DA11D661F829F2227B00DA11D53
:100B3000621F739FB00DA11D621F839FA00D611DD9
:100B4000221F749F3327A00D611D231F849F600DFA
:100B5000211D822F762F6A2F11249F5750409AF023
:100B6000F1F088234AF0EE0FFF1FBB1F661F771FAF
:100B7000881F91505040A9F79E3F510580F00C947A
:100B800018050C9463055F3FE4F3983ED4F3869513
:100B900077956795B795F795E7959F5FC1F7FE2B1A
:100BA000880F911D9695879597F908950E942904BD
:100BB000B7FF0895821B930B0895EE0FFF1F05905A
:0A0BC000F491E02D0994F894FFCFA2
:100BCA00000000007C01DC000901C9013A0118019A
:020BDA002C01EC
:00000001FF
