:100000000C945D000C9485000C9485000C94850084
:100010000C9485000C9485000C9485000C9485004C
:100020000C9485000C9485000C9485000C9485003C
:100030000C9485000C9485000C9485000C9485002C
:100040000C9436020C9485000C94A6020C94800249
:100050000C9485000C9485000C9485000C9485000C
:100060000C9485000C9485000000000024002700FB
:100070002A0000000000250028002B0004040404CE
:100080000404040402020202020203030303030342
:10009000010204081020408001020408102001021F
:1000A00004081020000000080002010000030407FB
:1000B00000000000000000000A0411241FBECFEF62
:1000C000D8E0DEBFCDBF11E0A0E0B1E0EAEBFBE09D
:1000D00002C005900D92A231B107D9F721E0A2E14B
:1000E000B1E001C01D92A83BB207E1F710E0CDE5F9
:1000F000D0E004C02197FE010E94D505CC35D10780
:10010000C9F70E94D8020C94DB050C94000090E023
:10011000FC01EC55FF4F2491FC01E057FF4F349157
:10012000FC01E458FF4FE491EE23C9F0222339F09B
:10013000233001F1A8F4213019F1223029F1F0E047
:10014000EE0FFF1FEE58FF4FA591B4918FB7F894B3
:10015000EC91611126C030953E233C938FBF0895EA
:100160002730A9F02830C9F0243049F78091800069
:100170008F7D03C0809180008F7780938000DFCFD8
:1001800084B58F7784BDDBCF84B58F7DFBCF809125
:10019000B0008F778093B000D2CF8091B0008F7D78
:1001A000F9CF3E2BDACFCF93DF9390E0FC01E057FD
:1001B000FF4F249184589F4FFC0184918823D1F0F4
:1001C00090E0880F991FFC01E859FF4FA591B49169
:1001D000FC01EE58FF4FC591D49161110EC09FB73D
:1001E000F8948C91E22FE0958E238C932881E22362
:1001F000E8839FBFDF91CF9108958FB7F894EC917A
:10020000E22BEC938FBFF6CF3FB7F8948091B40107
:100210009091B501A091B601B091B70126B5A89B08
:1002200005C02F3F19F00196A11DB11D3FBFBA2F88
:10023000A92F982F8827BC01CD01620F711D811D48
:10024000911D42E0660F771F881F991F4A95D1F7CD
:100250000895AF92BF92CF92DF92EF92FF920F93E9
:100260001F93CF93DF936C017B018B01040F151F4C
:10027000EB015E01AE18BF08C017D10759F06991B4
:10028000D601ED91FC910190F081E02DC601099518
:10029000892B79F7C501DF91CF911F910F91FF90C5
:1002A000EF90DF90CF90BF90AF900895FC01538DF9
:1002B000448D252F30E0842F90E0821B930B541740
:1002C00010F0CF96089501970895FC01918D828DCD
:1002D000981761F0A28DAE0FBF2FB11D5D968C9166
:1002E000928D9F5F9F73928F90E008958FEF9FEFA5
:1002F0000895FC01918D828D981731F0828DE80F61
:10030000F11D858D90E008958FEF9FEF0895FC011A
:10031000918D228D892F90E0805C9F4F821B9109E7
:100320008F739927089582E191E00E94870121E06F
:10033000892B09F420E0822F089580E090E0892B3A
:1003400029F00E94930181110C9400000895FC0192
:10035000A48DA80FB92FB11DA35ABF4F2C91848D26
:1003600090E001968F739927848FA689B7892C9383
:10037000A089B1898C91837080648C93938D848DD6
:10038000981306C00288F389E02D80818F7D8083D9
:100390000895EF92FF920F931F93CF93DF93EC0199
:1003A00081E0888F9B8D8C8D98131AC0E889F9891C
:1003B000808185FF15C09FB7F894EE89FF8960831F
:1003C000E889F98980818370806480839FBF81E0A0
:1003D00090E0DF91CF911F910F91FF90EF900895E2
:1003E000F62E0B8D10E00F5F1F4F0F731127E02EBD
:1003F0008C8D8E110CC00FB607FCFACFE889F989F5
:10040000808185FFF5CFCE010E94A701F1CFEB8D52
:10041000EC0FFD2FF11DE35AFF4FF0829FB7F894C8
:100420000B8FEA89FB8980818062CFCFCF93DF93E6
:10043000EC01888D8823B9F0AA89BB89E889F989FC
:100440008C9185FD03C0808186FD0DC00FB607FC31
:10045000F7CF8C9185FFF2CF808185FFEDCFCE0164
:100460000E94A701E9CFDF91CF9108951F920F92CB
:100470000FB60F9211242F933F938F939F93AF93B7
:10048000BF938091B0019091B101A091B201B09160
:10049000B3013091AF0123E0230F2D3758F50196BA
:1004A000A11DB11D2093AF018093B0019093B101C4
:1004B000A093B201B093B3018091B4019091B501C2
:1004C000A091B601B091B7010196A11DB11D809315
:1004D000B4019093B501A093B601B093B701BF9159
:1004E000AF919F918F913F912F910F900FBE0F90E1
:1004F0001F90189526E8230F0296A11DB11DD2CF9B
:100500001F920F920FB60F9211242F933F934F9388
:100510005F936F937F938F939F93AF93BF93EF936B
:10052000FF9382E191E00E94A701FF91EF91BF91BB
:10053000AF919F918F917F916F915F914F913F917B
:100540002F910F900FBE0F901F9018951F920F9232
:100550000FB60F9211242F938F939F93EF93FF93D6
:10056000E0912201F09123018081E0912801F09136
:10057000290182FD1BC0908180912B018F5F8F73B9
:1005800020912C01821741F0E0912B01F0E0EE5E0A
:10059000FE4F958F80932B01FF91EF919F918F914B
:1005A0002F910F900FBE0F901F9018958081F4CF60
:1005B000789484B5826084BD84B5816084BD85B53E
:1005C000826085BD85B5816085BD80916E0081604A
:1005D00080936E00109281008091810082608093F0
:1005E00081008091810081608093810080918000F2
:1005F0008160809380008091B10084608093B1001D
:100600008091B00081608093B00080917A00846016
:1006100080937A0080917A00826080937A00809142
:100620007A00816080937A0080917A00806880935C
:100630007A001092C100E0912201F091230182E042
:100640008083E0912201F09123011082E0911E014C
:10065000F0911F011082E0912001F091210180E1D1
:10066000808310922A01E0912601F091270186E013
:100670008083E0912401F091250180818061808355
:10068000E0912401F0912501808188608083E091D0
:100690002401F0912501808180688083E09124010C
:1006A000F091250180818F7D808361E089E00E9447
:1006B000D30061E088E00E94D30061E08DE00E94F9
:1006C000D30060E084E10E94D30096E4792E00E03C
:1006D00010E070927C0080917A00806480937A00B0
:1006E00080917A0086FDFCCF60917800709179004E
:1006F000072E000C880B990B0E94DC0420E030E0F0
:1007000040EA50E40E9468050E94A404072E000CF1
:10071000880B990B0E94DC0420E030E040E85AE3AB
:100720000E94680520E030E040E05FE30E9437046B
:1007300020E030E048EC52E40E9468050E94A404E6
:100740007B01C62FDF2D68EC82E191E00E94C90198
:100750006E2D82E191E00E94C9016F2D82E191E04E
:100760000E94C9016DE082E191E00E94C901CD3192
:10077000D105E8F560E089E00E94870060E088E04C
:100780000E94870061E08DE00E9487000E940401C2
:100790004B015C0188EBC82E8BE0D82EE12CF12CAC
:1007A0000E940401681979098A099B09683E73400F
:1007B00081059105A8F321E0C21AD108E108F108EA
:1007C00088EE880E83E0981EA11CB11CC114D104D0
:1007D000E104F10429F70115110509F47ACF0E940B
:1007E0009301882309F475CF0E94000072CF6D97A2
:1007F0002C9750F460E089E00E94870061E088E077
:100800000E94870060E0BFCF61E089E00E9487001E
:1008100060E0F5CFE2E1F1E01382128288EE93E02E
:10082000A0E0B0E084839583A683B78384E091E061
:100830009183808385EC90E09587848784EC90E0B9
:100840009787868780EC90E0918B808B81EC90E09D
:10085000938B828B82EC90E0958B848B86EC90E07E
:10086000978B868B118E128E138E148E089550588E
:10087000BB27AA270E944F040C942E050E94200536
:1008800038F00E94270520F039F49F3F19F426F430
:100890000C941D050EF4E095E7FB0C941705E92F69
:1008A0000E943F0558F3BA1762077307840795073C
:1008B00020F079F4A6F50C9461050EF4E0950B2E6A
:1008C000BA2FA02D0B01B90190010C01CA01A001A2
:1008D0001124FF27591B99F0593F50F4503E68F1FD
:1008E0001A16F040A22F232F342F4427585FF3CF3E
:1008F000469537952795A795F0405395C9F77EF40F
:100900001F16BA0B620B730B840BBAF09150A1F057
:10091000FF0FBB1F661F771F881FC2F70EC0BA0FDD
:10092000621F731F841F48F4879577956795B79565
:10093000F7959E3F08F0B0CF9395880F08F0992760
:10094000EE0F9795879508950E94AB046894B111B6
:100950000C94620508950E94470588F09F5798F00F
:10096000B92F9927B751B0F0E1F0660F771F881FB4
:10097000991F1AF0BA95C9F714C0B13091F00E94CE
:100980006105B1E008950C946105672F782F8827E1
:10099000B85F39F0B93FCCF3869577956795B395F5
:1009A000D9F73EF490958095709561957F4F8F4F64
:1009B0009F4F0895E89409C097FB3EF49095809569
:1009C000709561957F4F8F4F9F4F9923A9F0F92F15
:1009D00096E9BB279395F695879577956795B79593
:1009E000F111F8CFFAF4BB0F11F460FF1BC06F5F79
:1009F0007F4F8F4F9F4F16C0882311F096E911C08B
:100A0000772321F09EE8872F762F05C0662371F0AB
:100A100096E8862F70E060E02AF09A95660F771FBF
:100A2000881FDAF7880F9695879597F9089597F9B3
:100A30009F6780E870E060E008959FEF80EC089584
:100A400000240A94161617061806090608950024AD
:100A50000A9412161306140605060895092E039427
:100A6000000C11F4882352F0BB0F40F4BF2B11F49B
:100A700060FF04C06F5F7F4F8F4F9F4F089557FDFA
:100A80009058440F551F59F05F3F71F04795880FFC
:100A900097FB991F61F09F3F79F087950895121693
:100AA00013061406551FF2CF4695F1DF08C016163F
:100AB00017061806991FF1CF8695710561050894F0
:100AC0000895E894BB2766277727CB0197F9089507
:100AD0000E947B050C942E050E94200538F00E9490
:100AE000270520F0952311F00C9417050C941D0593
:100AF00011240C9462050E943F0570F3959FC1F389
:100B0000950F50E0551F629FF001729FBB27F00DBB
:100B1000B11D639FAA27F00DB11DAA1F649F662710
:100B2000B00DA11D661F829F2227B00DA11D621F5F
:100B3000739FB00DA11D621F839FA00D611D221F19
:100B4000749F3327A00D611D231F849F600D211DFD
:100B5000822F762F6A2F11249F5750409AF0F1F080
:100B600088234AF0EE0FFF1FBB1F661F771F881FE9
:100B700091505040A9F79E3F510580F00C94170505
:100B80000C9462055F3FE4F3983ED4F38695779525
:100B90006795B795F795E7959F5FC1F7FE2B880F8F
:100BA000911D9695879597F90895EE0FFF1F059073
:0A0BB000F491E02D0994F894FFCFB2
:100BBA0000000000C90129015601160287016501DA
:020BCA007901AF
:00000001FF
