:100000000C9462000C947F000C947F000C947F0091
:100010000C947F000C947F000C947F000C94A8013A
:100020000C947F000C947F000C947F000C947F0054
:100030000C947F000C947F000C947F000C947F0044
:100040000C945E010C947F000C947F000C947F0054
:100050000C947F000C947F000C947F000C947F0024
:100060000C947F000C947F00020000000024002705
:10007000002A0000000000250028002B00000000DE
:1000800000230026002900040404040404040402DC
:100090000202020202030303030303010204081025
:1000A00020408001020408102001020408102000F2
:1000B0000000080002010000030407000000000027
:1000C0000000000011241FBECFEFD8E0DEBFCDBF7F
:1000D00011E0A0E0B1E0EAE6F8E002C005900D9280
:1000E000A430B107D9F721E0A4E0B1E001C01D922E
:1000F000AC32B207E1F70E9404020C9433040C9472
:100100000000833081F028F4813099F08230A9F02A
:1001100008958730A9F08830C9F08430B1F4809117
:1001200080008F7D03C0809180008F778093800056
:10013000089584B58F7784BD089584B58F7DFBCFF6
:100140008091B0008F778093B00008958091B000C7
:100150008F7DF9CFCF93DF93282F30E0F901E15560
:10016000FF4F8491F901E556FF4FD491F901E9570A
:10017000FF4FC491CC23A1F081110E948100EC2F8C
:10018000F0E0EE0FFF1FE358FF4FA591B491EC9103
:10019000ED2381E090E009F480E0DF91CF910895B4
:1001A00080E090E0FACF1F93CF93DF93282F30E0C9
:1001B000F901E155FF4F8491F901E556FF4FD491C4
:1001C000F901E957FF4FC491CC23A9F0162F8111F3
:1001D0000E948100EC2FF0E0EE0FFF1FED58FF4F63
:1001E000A591B4918FB7F894EC91111108C0D095F6
:1001F000DE23DC938FBFDF91CF911F910895DE2B1B
:10020000F8CFCF93DF9390E0FC01E556FF4F2491A8
:1002100089579F4FFC0184918823D1F090E0880F8B
:10022000991FFC01E759FF4FA591B491FC01ED58CE
:10023000FF4FC591D49161110EC09FB7F8948C9176
:10024000E22FE0958E238C932881E223E8839FBFE1
:10025000DF91CF9108958FB7F894EC91E22BEC9356
:100260008FBFF6CF9091000189130BC0E8E6F0E054
:10027000E4919FEF90930001E13049F028F0E230E3
:1002800061F060E00C94D30010926E00FACF909170
:100290006F009D7F90936F00F4CF909170009D7FD1
:1002A0009093700091E09093B0009091B100987F8E
:1002B00094609093B1001092B300E3CF1F920F921D
:1002C0000FB60F9211242F933F938F939F93AF9369
:1002D000BF938091280190912901A0912A01B091AA
:1002E0002B013091270123E0230F2D3758F501967C
:1002F000A11DB11D2093270180932801909329010E
:10030000A0932A01B0932B018091230190912401A5
:10031000A0912501B09126010196A11DB11D8093E8
:10032000230190932401A0932501B0932601BF914E
:10033000AF919F918F913F912F910F900FBE0F9092
:100340001F90189526E8230F0296A11DB11DD2CF4C
:100350001F920F920FB60F9211242F933F934F933A
:100360005F936F937F938F939F93AF93BF93EF931D
:10037000FF938091090190910A01A0910B01B09126
:100380000C01892B8A2B8B2BD1F190910401E091E8
:100390000501F09106018081892780838091090100
:1003A00090910A01A0910B01B0910C011816190649
:1003B0001A061B069CF48091090190910A01A091F4
:1003C0000B01B0910C010197A109B10980930901BA
:1003D00090930A01A0930B01B0930C01FF91EF9150
:1003E000BF91AF919F918F917F916F915F914F914D
:1003F0003F912F910F900FBE0F901F9018958091F5
:1004000000010E943201EACF789484B5826084BDF5
:1004100084B5816084BD85B5826085BD85B5816008
:1004200085BD80916E00816080936E001092810086
:100430008091810082608093810080918100816041
:100440008093810080918000816080938000809102
:10045000B10084608093B1008091B000816080938E
:10046000B00080917A00846080937A0080917A0055
:10047000826080937A0080917A00816080937A0014
:1004800080917A00806880937A001092C10061E0C8
:1004900082E00E94010161E083E00E94010161E0CD
:1004A00086E00E94010160E08DE00E94010161E0B0
:1004B0008AE00E94010134E0632E37E4732E48E69F
:1004C000C42E40E0D42E51E9452E50E0552E65EA69
:1004D000E62E60E0F62E70E0272E70E0372EC1E0A9
:1004E000D0E088248A94982C54018DE00E94AA00C0
:1004F0009093220180932101019709F018C1809106
:10050000210190912201019741F48DE00E94AA00FF
:100510009093220180932101F2CF80911F0190914D
:100520002001892B09F070C180911D0190911E015D
:10053000892B09F069C180911B0190911C01892BC5
:1005400009F062C161E082E00E94D30061E083E0D3
:100550000E94D30061E086E00E94D30080910001F8
:100560008A3029F5F601149117FDBEC061E08AE0DA
:100570000E940101112309F489C0123009F09AC0C8
:100580008091B100887F85608093B1008DE8809371
:10059000B3008092090190920A01A0920B01B092DF
:1005A0000C01809170008260809370009DC08F3F2D
:1005B00009F09AC08AE080930001F60114911F3F70
:1005C00009F492C0113019F150F0123009F43CC016
:1005D00017FD8AC061E08AE00E940101CECF14BC01
:1005E00015BC84B5826084BD85B5816085BDF2018E
:1005F0008491E82FF0E0EE0FFF1FED58FF4F85913B
:100600009491F70184918093080110E0AFCF10928C
:100610008000109281008091810088608093810029
:1006200080918100816080938100F2018491E82FA4
:10063000F0E0EE0FFF1FED58FF4F85919491F70109
:1006400084918093070192CF1092B0001092B10074
:100650008091B00082608093B0008091B100816091
:100660008093B100F2018491E82FF0E0EE0FFF1FBC
:10067000ED58FF4F85919491909306018093050169
:10068000F70184918093040112E070CF85B5887FD3
:10069000846085BD86E487BD80921101909212012D
:1006A000A0921301B092140180916E008260809339
:1006B0006E001AC0113009F09FC080918100887FC0
:1006C000816080938100709289006092880080929E
:1006D0000D0190920E01A0920F01B0921001809135
:1006E0006F00826080936F00D0931A01C09319014C
:1006F000D0932001C0931F01D0931E01C0931D0110
:10070000D0931C01C0931B012FB7F894809128014E
:1007100090912901A0912A01B0912B012FBF8093C4
:10072000150190931601A0931701B0931801209121
:10073000190130911A012130310509F056C04FB727
:10074000F8948091280190912901A0912A01B091FB
:100750002B014FBF40911501509116016091170177
:1007600070911801841B950BA60BB70B853F914028
:10077000A105B105D0F1809101019091020101968E
:10078000853091050CF060C09093020180930101C7
:1007900080910101909102019C012150310961E099
:1007A0002230310520F0039709F053C060E082E069
:1007B0000E94D30060E083E00E94D30061E086E005
:1007C0000E94D3002FB7F8948091280190912901BD
:1007D000A0912A01B0912B012FBF80931501909316
:1007E0001601A0931701B09318012114310409F4E4
:1007F0007CCE0E94000079CE123021F0111174CF0E
:1008000084E049CF84E0C3CE60E082E00E94D30060
:1008100060E083E00E94D30060E086E00E94D300A5
:1008200010921A01109219011092200110921F01CA
:1008300010921E0110921D0110921C0110921B01BA
:100840008AE00E94320173CF3093020120930101AC
:100850009FCF61E082E00E94D30060E083E00E94CD
:0A086000D30060E0ACCFF894FFCFA6
:04086A00FF0100008A
:00000001FF
